{
  "contractName": "bacem",
  "abi": [
    {
      "inputs": [],
      "payable": false,
      "stateMutability": "nonpayable",
      "type": "constructor"
    },
    {
      "constant": true,
      "inputs": [],
      "name": "getBacem",
      "outputs": [
        {
          "internalType": "string",
          "name": "",
          "type": "string"
        }
      ],
      "payable": false,
      "stateMutability": "pure",
      "type": "function"
    }
  ],
  "bytecode": "0x608060405234801561001057600080fd5b5060ff8061001f6000396000f3fe6080604052348015600f57600080fd5b506004361060285760003560e01c8063daaf6e9d14602d575b600080fd5b603360a5565b6040805160208082528351818301528351919283929083019185019080838360005b83811015606b5781810151838201526020016055565b50505050905090810190601f16801560975780820380516001836020036101000a031916815260200191505b509250505060405180910390f35b60408051808201909152600b81526a204920616d20426163656d60a81b60208201529056fea265627a7a723158200f448f6d64adbd47f249a42cb463c00e125f546514607251325f6400f198a2bf64736f6c63430005100032",
  "source": "pragma solidity >=0.4.22 <0.9.0;\n\ncontract bacem {\n  constructor() public {\n  }\n\n\n\n   function getBacem() public pure returns (string memory) {\n    return \" I am Bacem\";\n  }\n  \n}\n                                                                ",
  "sourcePath": "D:\\Jawaher\\Med.tn\\med-smartContract2\\contracts\\bacem.sol",
  "compiler": {
    "name": "solc",
    "version": "0.5.16+commit.9c3226ce.Emscripten.clang"
  },
  "schemaVersion": "3.0.23",
  "updatedAt": "2021-04-16T21:08:51.088Z",
  "networkType": "ethereum",
  "devdoc": {
    "methods": {}
  },
  "userdoc": {
    "methods": {}
  }
}