{
  "contractName": "jawaher",
  "abi": [
    {
      "inputs": [],
      "payable": false,
      "stateMutability": "nonpayable",
      "type": "constructor"
    },
    {
      "constant": true,
      "inputs": [],
      "name": "getJawaher",
      "outputs": [
        {
          "internalType": "string",
          "name": "",
          "type": "string"
        }
      ],
      "payable": false,
      "stateMutability": "pure",
      "type": "function"
    }
  ],
  "bytecode": "0x608060405234801561001057600080fd5b50610101806100206000396000f3fe6080604052348015600f57600080fd5b506004361060285760003560e01c8063633c9fc414602d575b600080fd5b603360a5565b6040805160208082528351818301528351919283929083019185019080838360005b83811015606b5781810151838201526020016055565b50505050905090810190601f16801560975780820380516001836020036101000a031916815260200191505b509250505060405180910390f35b60408051808201909152600d81526c10249030b6902530bbb0b432b960991b60208201529056fea265627a7a723158203591c35788912a140ae8207b4717d1d1e6ab3f3d555b222b6d4ad9433d8e415b64736f6c63430005100032",
  "source": "pragma solidity >= 0.5.0 < 0.7.0;\r\n\r\ncontract jawaher {\r\n  constructor() public {\r\n  }\r\n\r\n\r\n\r\n   function getJawaher() public pure returns (string memory) {\r\n    return \" I am Jawaher\";\r\n  }\r\n  \r\n}",
  "sourcePath": "D:\\Jawaher\\Med.tn\\med-smartContract2\\contracts\\jawaher.sol",
  "compiler": {
    "name": "solc",
    "version": "0.5.16+commit.9c3226ce.Emscripten.clang"
  },
  "schemaVersion": "3.0.23",
  "updatedAt": "2021-04-16T21:08:18.673Z",
  "devdoc": {
    "methods": {}
  },
  "userdoc": {
    "methods": {}
  }
}