{
  "contractName": "Prescription",
  "abi": [
    {
      "inputs": [
        {
          "internalType": "address",
          "name": "admin",
          "type": "address"
        }
      ],
      "payable": false,
      "stateMutability": "nonpayable",
      "type": "constructor"
    },
    {
      "anonymous": false,
      "inputs": [
        {
          "indexed": false,
          "internalType": "uint256",
          "name": "sequence",
          "type": "uint256"
        }
      ],
      "name": "prescriptionAdded",
      "type": "event"
    },
    {
      "anonymous": false,
      "inputs": [
        {
          "indexed": false,
          "internalType": "uint256",
          "name": "sequence",
          "type": "uint256"
        }
      ],
      "name": "prescriptionUpdated",
      "type": "event"
    },
    {
      "constant": false,
      "inputs": [
        {
          "internalType": "string",
          "name": "a",
          "type": "string"
        }
      ],
      "name": "addPrescription",
      "outputs": [],
      "payable": false,
      "stateMutability": "nonpayable",
      "type": "function"
    },
    {
      "constant": true,
      "inputs": [
        {
          "internalType": "uint256",
          "name": "b",
          "type": "uint256"
        }
      ],
      "name": "getPrescription",
      "outputs": [
        {
          "internalType": "string",
          "name": "",
          "type": "string"
        }
      ],
      "payable": false,
      "stateMutability": "view",
      "type": "function"
    },
    {
      "constant": false,
      "inputs": [
        {
          "internalType": "string",
          "name": "a",
          "type": "string"
        },
        {
          "internalType": "uint256",
          "name": "s",
          "type": "uint256"
        }
      ],
      "name": "updatePrescription",
      "outputs": [],
      "payable": false,
      "stateMutability": "nonpayable",
      "type": "function"
    }
  ],
  "bytecode": "0x608060405234801561001057600080fd5b506040516106543803806106548339818101604052602081101561003357600080fd5b5051600280546001600160a01b0319166001600160a01b03909216919091179055634ac1c3026001556105e98061006b6000396000f3fe608060405234801561001057600080fd5b50600436106100415760003560e01c80636f16af1014610046578063dbaf5de2146100d8578063fab99a8614610180575b600080fd5b6100636004803603602081101561005c57600080fd5b5035610228565b6040805160208082528351818301528351919283929083019185019080838360005b8381101561009d578181015183820152602001610085565b50505050905090810190601f1680156100ca5780820380516001836020036101000a031916815260200191505b509250505060405180910390f35b61017e600480360360208110156100ee57600080fd5b81019060208101813564010000000081111561010957600080fd5b82018360208201111561011b57600080fd5b8035906020019184600183028401116401000000008311171561013d57600080fd5b91908080601f0160208091040260200160405190810160405280939291908181526020018383808284376000920191909152509295506102c7945050505050565b005b61017e6004803603604081101561019657600080fd5b8101906020810181356401000000008111156101b157600080fd5b8201836020820111156101c357600080fd5b803590602001918460018302840111640100000000831117156101e557600080fd5b91908080601f01602080910402602001604051908101604052809392919081815260200183838082843760009201919091525092955050913592506103ef915050565b6000818152602081815260409182902080548351601f60026000196101006001861615020190931692909204918201849004840281018401909452808452606093928301828280156102bb5780601f10610290576101008083540402835291602001916102bb565b820191906000526020600020905b81548152906001019060200180831161029e57829003601f168201915b50505050509050919050565b60025460408051634cb2206360e11b815233600482015290516001600160a01b039092169163996440c691602480820192602092909190829003018186803b15801561031257600080fd5b505afa158015610326573d6000803e3d6000fd5b505050506040513d602081101561033c57600080fd5b505161038f576040805162461bcd60e51b815260206004820152601f60248201527f6f6e6c7920446f63746f72732063616e20646f207468697320616374696f6e00604482015290519081900360640190fd5b6001805481019081905560009081526020818152604090912082516103b6928401906104f6565b5060015460408051918252517f5d05d82bdaab0831c783a07202732e6d060a355594203961d725f156420b829e9181900360200190a150565b6002546040805163414a377160e11b815233600482015290516001600160a01b03909216916382946ee291602480820192602092909190829003018186803b15801561043a57600080fd5b505afa15801561044e573d6000803e3d6000fd5b505050506040513d602081101561046457600080fd5b50516104a15760405162461bcd60e51b81526004018080602001828103825260238152602001806105926023913960400191505060405180910390fd5b60008181526020818152604090912083516104be928501906104f6565b506040805182815290517f197fd06613e366e38368723d788e0a4ceb2431dc32ed6a4c339e1d33708bd5d89181900360200190a15050565b828054600181600116156101000203166002900490600052602060002090601f016020900481019282601f1061053757805160ff1916838001178555610564565b82800160010185558215610564579182015b82811115610564578251825591602001919060010190610549565b50610570929150610574565b5090565b61058e91905b80821115610570576000815560010161057a565b9056fe6f6e6c7920506861726d6163697374732063616e20646f207468697320616374696f6ea265627a7a723158201363bfef421f9765a55dc32d8b6cac518af811805b6b997dc0a3110655bf0b6a64736f6c63430005100032",
  "source": "pragma solidity >=0.4.22 <0.9.0;\r\n\r\nimport \"./IAdministrator.sol\";\r\n\r\n\r\ncontract Prescription {\r\n\r\n\r\n  //mapping( uint => address) Prescriptions;\r\n    mapping ( uint => string) Prescriptions ; \r\n\r\n  uint sequence;\r\n  address AdministratorAddress;\r\n  event prescriptionAdded(uint sequence);\r\n  event prescriptionUpdated(uint sequence );\r\n\r\n\r\n  constructor(address admin ) public {\r\n  \r\n    AdministratorAddress = admin;\r\n    sequence = 1254212354;\r\n  }\r\n\r\n\r\n  modifier onlyDoctor() {\r\n      require(IAdministrator(AdministratorAddress).isDoctor(msg.sender), \"only Doctors can do this action\");\r\n      _;\r\n  }\r\n\r\n  modifier onlyPharmacist() {\r\n      require(IAdministrator(AdministratorAddress).isPharmacist(msg.sender), \"only Pharmacists can do this action\");\r\n      _;\r\n  }\r\n\r\n  function addPrescription(string memory a ) public onlyDoctor {\r\n    sequence = sequence + 1;\r\n    //Prescriptions[a] = sequence;\r\n    Prescriptions[sequence] = a ;\r\n    emit prescriptionAdded(sequence);\r\n  }\r\n\r\n  function getPrescription (uint b ) public view returns (string memory ){\r\n      return Prescriptions[b];\r\n  }\r\n\r\n  function updatePrescription(string memory a , uint s) public onlyPharmacist {\r\n    Prescriptions[s] = a ;\r\n    emit prescriptionUpdated(s);\r\n  }\r\n\r\n  \r\n}",
  "sourcePath": "D:\\Jawaher\\Med.tn\\med-smartContract2\\contracts\\Prescription.sol",
  "compiler": {
    "name": "solc",
    "version": "0.5.16+commit.9c3226ce.Emscripten.clang"
  },
  "schemaVersion": "3.0.23",
  "updatedAt": "2021-04-16T21:08:51.096Z",
  "networkType": "ethereum",
  "devdoc": {
    "methods": {}
  },
  "userdoc": {
    "methods": {}
  }
}