{
  "contractName": "Administrators",
  "abi": [
    {
      "inputs": [],
      "payable": false,
      "stateMutability": "nonpayable",
      "type": "constructor"
    },
    {
      "anonymous": false,
      "inputs": [
        {
          "indexed": false,
          "internalType": "address",
          "name": "addresse",
          "type": "address"
        },
        {
          "indexed": false,
          "internalType": "string",
          "name": "name",
          "type": "string"
        }
      ],
      "name": "addedAdmin",
      "type": "event"
    },
    {
      "anonymous": false,
      "inputs": [
        {
          "indexed": false,
          "internalType": "address",
          "name": "addresse",
          "type": "address"
        },
        {
          "indexed": false,
          "internalType": "string",
          "name": "name",
          "type": "string"
        }
      ],
      "name": "addedUser",
      "type": "event"
    },
    {
      "anonymous": false,
      "inputs": [
        {
          "indexed": false,
          "internalType": "address",
          "name": "addresse",
          "type": "address"
        },
        {
          "indexed": false,
          "internalType": "string",
          "name": "name",
          "type": "string"
        }
      ],
      "name": "removedAdmin",
      "type": "event"
    },
    {
      "anonymous": false,
      "inputs": [
        {
          "indexed": false,
          "internalType": "address",
          "name": "addresse",
          "type": "address"
        },
        {
          "indexed": false,
          "internalType": "string",
          "name": "name",
          "type": "string"
        }
      ],
      "name": "removedUser",
      "type": "event"
    },
    {
      "constant": true,
      "inputs": [
        {
          "internalType": "address",
          "name": "a",
          "type": "address"
        }
      ],
      "name": "isRegistred",
      "outputs": [
        {
          "internalType": "bool",
          "name": "",
          "type": "bool"
        }
      ],
      "payable": false,
      "stateMutability": "view",
      "type": "function"
    },
    {
      "constant": false,
      "inputs": [
        {
          "internalType": "address",
          "name": "a",
          "type": "address"
        },
        {
          "internalType": "string",
          "name": "name",
          "type": "string"
        }
      ],
      "name": "addAdmin",
      "outputs": [],
      "payable": false,
      "stateMutability": "nonpayable",
      "type": "function"
    },
    {
      "constant": true,
      "inputs": [
        {
          "internalType": "address",
          "name": "a",
          "type": "address"
        }
      ],
      "name": "isAdmin",
      "outputs": [
        {
          "internalType": "bool",
          "name": "",
          "type": "bool"
        }
      ],
      "payable": false,
      "stateMutability": "view",
      "type": "function"
    },
    {
      "constant": true,
      "inputs": [
        {
          "internalType": "address",
          "name": "a",
          "type": "address"
        }
      ],
      "name": "getInfoAdmin",
      "outputs": [
        {
          "internalType": "bool",
          "name": "",
          "type": "bool"
        },
        {
          "internalType": "string",
          "name": "",
          "type": "string"
        }
      ],
      "payable": false,
      "stateMutability": "view",
      "type": "function"
    },
    {
      "constant": false,
      "inputs": [
        {
          "internalType": "address",
          "name": "a",
          "type": "address"
        }
      ],
      "name": "removeAdmin",
      "outputs": [],
      "payable": false,
      "stateMutability": "nonpayable",
      "type": "function"
    },
    {
      "constant": false,
      "inputs": [
        {
          "internalType": "address",
          "name": "a",
          "type": "address"
        },
        {
          "internalType": "string",
          "name": "name",
          "type": "string"
        }
      ],
      "name": "addUser",
      "outputs": [],
      "payable": false,
      "stateMutability": "nonpayable",
      "type": "function"
    },
    {
      "constant": true,
      "inputs": [
        {
          "internalType": "address",
          "name": "a",
          "type": "address"
        }
      ],
      "name": "isUser",
      "outputs": [
        {
          "internalType": "bool",
          "name": "",
          "type": "bool"
        }
      ],
      "payable": false,
      "stateMutability": "view",
      "type": "function"
    },
    {
      "constant": true,
      "inputs": [
        {
          "internalType": "address",
          "name": "a",
          "type": "address"
        }
      ],
      "name": "getInfoUser",
      "outputs": [
        {
          "internalType": "bool",
          "name": "",
          "type": "bool"
        },
        {
          "internalType": "string",
          "name": "",
          "type": "string"
        }
      ],
      "payable": false,
      "stateMutability": "view",
      "type": "function"
    },
    {
      "constant": false,
      "inputs": [
        {
          "internalType": "address",
          "name": "a",
          "type": "address"
        }
      ],
      "name": "removeUser",
      "outputs": [],
      "payable": false,
      "stateMutability": "nonpayable",
      "type": "function"
    }
  ],
  "bytecode": "0x608060405234801561001057600080fd5b50336000818152600260209081526040808320805460ff191660011790558051808201825260078152662530bbb0b432b960c91b818401908152948452600390925290912090516100619290610067565b50610102565b828054600181600116156101000203166002900490600052602060002090601f016020900481019282601f106100a857805160ff19168380011785556100d5565b828001600101855582156100d5579182015b828111156100d55782518255916020019190600101906100ba565b506100e19291506100e5565b5090565b6100ff91905b808211156100e157600081556001016100eb565b90565b610b03806101116000396000f3fe608060405234801561001057600080fd5b50600436106100935760003560e01c806368db49ed1161006657806368db49ed146101d657806393f7d5cf146101fc57806398575188146102a5578063ba9d13fc146102cb578063d16856ca146102f157610093565b80631785f53c1461009857806324d7806c146100c05780634209fff1146100fa5780634b68d43114610120575b600080fd5b6100be600480360360208110156100ae57600080fd5b50356001600160a01b03166103a7565b005b6100e6600480360360208110156100d657600080fd5b50356001600160a01b0316610515565b604080519115158252519081900360200190f35b6100e66004803603602081101561011057600080fd5b50356001600160a01b0316610533565b6100be6004803603604081101561013657600080fd5b6001600160a01b03823516919081019060408101602082013564010000000081111561016157600080fd5b82018360208201111561017357600080fd5b8035906020019184600183028401116401000000008311171561019557600080fd5b91908080601f016020809104026020016040519081016040528093929190818152602001838380828437600092019190915250929550610551945050505050565b6100e6600480360360208110156101ec57600080fd5b50356001600160a01b031661068a565b6102226004803603602081101561021257600080fd5b50356001600160a01b03166106aa565b604051808315151515815260200180602001828103825283818151815260200191508051906020019080838360005b83811015610269578181015183820152602001610251565b50505050905090810190601f1680156102965780820380516001836020036101000a031916815260200191505b50935050505060405180910390f35b6100be600480360360208110156102bb57600080fd5b50356001600160a01b0316610768565b610222600480360360208110156102e157600080fd5b50356001600160a01b0316610897565b6100be6004803603604081101561030757600080fd5b6001600160a01b03823516919081019060408101602082013564010000000081111561033257600080fd5b82018360208201111561034457600080fd5b8035906020019184600183028401116401000000008311171561036657600080fd5b91908080601f016020809104026020016040519081016040528093929190818152602001838380828437600092019190915250929550610918945050505050565b6103b033610515565b6103ef576040805162461bcd60e51b815260206004820152601d6024820152600080516020610aaf833981519152604482015290519081900360640190fd5b6001600160a01b0381166000818152600260209081526040808320805460ff1916905580518082018252600781526619195b195d195960ca1b818401908152948452600390925290912090516104459290610a13565b506001600160a01b03811660008181526003602090815260409182902082519384529083018281528154600260001961010060018416150201909116049284018390527f966db6fbdba77aa0dfb36f38a6b37b0a259e953e7bd8d60a217b884bcb40b7c79385939091906060830190849080156105035780601f106104d857610100808354040283529160200191610503565b820191906000526020600020905b8154815290600101906020018083116104e657829003601f168201915b5050935050505060405180910390a150565b6001600160a01b031660009081526002602052604090205460ff1690565b6001600160a01b031660009081526020819052604090205460ff1690565b61055a33610515565b610599576040805162461bcd60e51b815260206004820152601d6024820152600080516020610aaf833981519152604482015290519081900360640190fd5b6001600160a01b038216600090815260208181526040808320805460ff19166001908117909155825290912082516105d392840190610a13565b507e023e4ac0108d487265219fc756afd7704e03096583f88cb988bed8f605a116828260405180836001600160a01b03166001600160a01b0316815260200180602001828103825283818151815260200191508051906020019080838360005b8381101561064b578181015183820152602001610633565b50505050905090810190601f1680156106785780820380516001836020036101000a031916815260200191505b50935050505060405180910390a15050565b600061069582610515565b806106a457506106a482610533565b92915050565b6001600160a01b038116600090815260208181526040808320546003835281842080548351601f6002600019600185161561010002019093169290920491820186900486028101860190945280845260609460ff9093169391928391908301828280156107585780601f1061072d57610100808354040283529160200191610758565b820191906000526020600020905b81548152906001019060200180831161073b57829003601f168201915b5050505050905091509150915091565b61077133610515565b6107b0576040805162461bcd60e51b815260206004820152601d6024820152600080516020610aaf833981519152604482015290519081900360640190fd5b6001600160a01b038116600081815260208181526040808320805460ff1916905580518082018252600781526619195b195d195960ca1b818401908152948452600190925290912090516108049290610a13565b506001600160a01b03811660008181526003602090815260409182902082519384529083018281528154600260001961010060018416150201909116049284018390527f72dcf799721ab583bb1e9bef8e636b164aebb22be1a7c826686448f7aa06a6f19385939091906060830190849080156105035780601f106104d857610100808354040283529160200191610503565b6001600160a01b03811660009081526002602081815260408084205460038352818520805483516101006001831615026000190190911695909504601f810185900485028601850190935282855260609460ff90921693909283918301828280156107585780601f1061072d57610100808354040283529160200191610758565b61092133610515565b610960576040805162461bcd60e51b815260206004820152601d6024820152600080516020610aaf833981519152604482015290519081900360640190fd5b6001600160a01b0382166000908152600260209081526040808320805460ff1916600117905560038252909120825161099b92840190610a13565b507f4781cd01d23d8818630aa28d7429f7dafe9112abbfb77c252b4924fad98d037f828260405180836001600160a01b03166001600160a01b0316815260200180602001828103825283818151815260200191508051906020019080838360008381101561064b578181015183820152602001610633565b828054600181600116156101000203166002900490600052602060002090601f016020900481019282601f10610a5457805160ff1916838001178555610a81565b82800160010185558215610a81579182015b82811115610a81578251825591602001919060010190610a66565b50610a8d929150610a91565b5090565b610aab91905b80821115610a8d5760008155600101610a97565b9056fe6f6e6c792041646d696e2063616e20646f207468697320616374696f6e000000a265627a7a723158201039fdf14d2468eb819b7ff68c2c5bf7d4c3a33a791f0bba44dd2680a22fc26764736f6c63430005100032",
  "source": "pragma solidity >= 0.5.0 < 0.7.0;\r\n\r\nimport \"./IAdministrator.sol\";\r\n\r\ncontract Administrators is IAdministrator{\r\n\r\n\r\n  mapping( address => bool ) users;\r\n  mapping( address => string) usersList;\r\n  \r\n  mapping( address => bool) admins;\r\n  mapping( address => string) adminsList;\r\n\r\n\r\nevent addedAdmin(address addresse , string name);\r\nevent addedUser(address addresse , string name);\r\nevent removedAdmin(address addresse , string name);\r\nevent removedUser(address addresse , string name);\r\n\r\n  \r\n  constructor() public {\r\n   admins [msg.sender]=true;\r\n   adminsList[msg.sender]=\"Jawaher\";\r\n  }\r\n\r\n  modifier onlyAdmin() {\r\n      require(isAdmin(msg.sender), \"only Admin can do this action\");\r\n      _;\r\n  }\r\n\r\n\r\nfunction isRegistred(address a ) public view returns (bool) {\r\n  return isAdmin(a) || isUser(a);\r\n}\r\n\r\n   function addAdmin(address a , string memory name) public onlyAdmin {\r\n    admins[a] = true;\r\n    adminsList[a] = name;\r\n    emit addedAdmin(a , name );\r\n  }\r\n\r\n  function isAdmin(address a ) public view returns (bool) {\r\n    return (admins[a]);\r\n  }\r\n  function getInfoAdmin(address a ) public view returns (bool , string memory) {\r\n    return (admins[a] , adminsList[a]);\r\n  }\r\n\r\n  function removeAdmin (address a ) public onlyAdmin{\r\n    admins[a] = false ;\r\n    adminsList[a] = \"deleted\" ;\r\n    emit removedAdmin(a , adminsList[a] );\r\n  }\r\n\r\n\r\n\r\n  function addUser(address a ,string memory name  ) public onlyAdmin{\r\n    users[a] = true;\r\n    usersList[a] = name;\r\n     emit addedUser(a , name );\r\n  }\r\n\r\n  function isUser(address a ) public view returns (bool)  {\r\n    return (users[a]);\r\n  }\r\n\r\n    function getInfoUser(address a ) public view returns (bool , string memory)  {\r\n    return (users[a], adminsList[a]);\r\n  }\r\n\r\n  function removeUser (address a ) public onlyAdmin{\r\n    users[a] = false ;\r\n    usersList[a] = \"deleted\" ;\r\n     emit removedUser(a , adminsList[a] );\r\n  }\r\n\r\n\r\n  \r\n}",
  "sourcePath": "C:/jawaher/Jawaher/Jawaher/Adelphi-distillery/Adelphi-Dis-Contract/contracts/Administrators.sol",
  "compiler": {
    "name": "solc",
    "version": "0.5.16+commit.9c3226ce.Emscripten.clang"
  },
  "schemaVersion": "3.3.4",
  "updatedAt": "2021-06-27T21:23:26.540Z",
  "networkType": "ethereum",
  "devdoc": {
    "methods": {}
  },
  "userdoc": {
    "methods": {}
  }
}