{
  "contractName": "Mashing",
  "abi": [
    {
      "inputs": [
        {
          "internalType": "address",
          "name": "admin",
          "type": "address"
        }
      ],
      "payable": false,
      "stateMutability": "nonpayable",
      "type": "constructor"
    },
    {
      "anonymous": false,
      "inputs": [
        {
          "indexed": false,
          "internalType": "string",
          "name": "idMashing",
          "type": "string"
        }
      ],
      "name": "mashingAdded",
      "type": "event"
    },
    {
      "anonymous": false,
      "inputs": [
        {
          "indexed": false,
          "internalType": "string",
          "name": "idMashing",
          "type": "string"
        },
        {
          "indexed": false,
          "internalType": "string",
          "name": "updateMashing",
          "type": "string"
        }
      ],
      "name": "mashingUpdated",
      "type": "event"
    },
    {
      "constant": false,
      "inputs": [
        {
          "internalType": "string",
          "name": "a",
          "type": "string"
        },
        {
          "internalType": "string",
          "name": "x",
          "type": "string"
        }
      ],
      "name": "addMashing",
      "outputs": [],
      "payable": false,
      "stateMutability": "nonpayable",
      "type": "function"
    },
    {
      "constant": true,
      "inputs": [
        {
          "internalType": "string",
          "name": "b",
          "type": "string"
        }
      ],
      "name": "getMashing",
      "outputs": [
        {
          "internalType": "string",
          "name": "",
          "type": "string"
        }
      ],
      "payable": false,
      "stateMutability": "view",
      "type": "function"
    },
    {
      "constant": false,
      "inputs": [
        {
          "internalType": "string",
          "name": "a",
          "type": "string"
        },
        {
          "internalType": "string",
          "name": "id",
          "type": "string"
        }
      ],
      "name": "updateMashing",
      "outputs": [],
      "payable": false,
      "stateMutability": "nonpayable",
      "type": "function"
    }
  ],
  "bytecode": "0x608060405234801561001057600080fd5b50604051610a7b380380610a7b8339818101604052602081101561003357600080fd5b5051600180546001600160a01b0319166001600160a01b03909216919091179055610a18806100636000396000f3fe608060405234801561001057600080fd5b50600436106100415760003560e01c80633537e402146100465780633f158ca5146101715780635b988d711461028a575b600080fd5b61016f6004803603604081101561005c57600080fd5b810190602081018135600160201b81111561007657600080fd5b82018360208201111561008857600080fd5b803590602001918460018302840111600160201b831117156100a957600080fd5b91908080601f0160208091040260200160405190810160405280939291908181526020018383808284376000920191909152509295949360208101935035915050600160201b8111156100fb57600080fd5b82018360208201111561010d57600080fd5b803590602001918460018302840111600160201b8311171561012e57600080fd5b91908080601f0160208091040260200160405190810160405280939291908181526020018383808284376000920191909152509295506103b3945050505050565b005b6102156004803603602081101561018757600080fd5b810190602081018135600160201b8111156101a157600080fd5b8201836020820111156101b357600080fd5b803590602001918460018302840111600160201b831117156101d457600080fd5b91908080601f0160208091040260200160405190810160405280939291908181526020018383808284376000920191909152509295506105e7945050505050565b6040805160208082528351818301528351919283929083019185019080838360005b8381101561024f578181015183820152602001610237565b50505050905090810190601f16801561027c5780820380516001836020036101000a031916815260200191505b509250505060405180910390f35b61016f600480360360408110156102a057600080fd5b810190602081018135600160201b8111156102ba57600080fd5b8201836020820111156102cc57600080fd5b803590602001918460018302840111600160201b831117156102ed57600080fd5b91908080601f0160208091040260200160405190810160405280939291908181526020018383808284376000920191909152509295949360208101935035915050600160201b81111561033f57600080fd5b82018360208201111561035157600080fd5b803590602001918460018302840111600160201b8311171561037257600080fd5b91908080601f0160208091040260200160405190810160405280939291908181526020018383808284376000920191909152509295506106db945050505050565b60015460408051630935e01b60e21b815233600482015290516001600160a01b03909216916324d7806c91602480820192602092909190829003018186803b1580156103fe57600080fd5b505afa158015610412573d6000803e3d6000fd5b505050506040513d602081101561042857600080fd5b5051806104a8575060015460408051634209fff160e01b815233600482015290516001600160a01b0390921691634209fff191602480820192602092909190829003018186803b15801561047b57600080fd5b505afa15801561048f573d6000803e3d6000fd5b505050506040513d60208110156104a557600080fd5b50515b6104e35760405162461bcd60e51b815260040180806020018281038252602b8152602001806109b9602b913960400191505060405180910390fd5b7f5927a2846f2f250d6efd55988e6eb9345fa13c0318ff1d864b4db954a4078e658183604051808060200180602001838103835285818151815260200191508051906020019080838360005b8381101561054757818101518382015260200161052f565b50505050905090810190601f1680156105745780820380516001836020036101000a031916815260200191505b50838103825284518152845160209182019186019080838360005b838110156105a757818101518382015260200161058f565b50505050905090810190601f1680156105d45780820380516001836020036101000a031916815260200191505b5094505050505060405180910390a15050565b60606000826040518082805190602001908083835b6020831061061b5780518252601f1990920191602091820191016105fc565b518151600019602094850361010090810a820192831692199390931691909117909252949092019687526040805197889003820188208054601f60026001831615909802909501169590950492830182900482028801820190528187529294509250508301828280156106cf5780601f106106a4576101008083540402835291602001916106cf565b820191906000526020600020905b8154815290600101906020018083116106b257829003601f168201915b50505050509050919050565b60015460408051630935e01b60e21b815233600482015290516001600160a01b03909216916324d7806c91602480820192602092909190829003018186803b15801561072657600080fd5b505afa15801561073a573d6000803e3d6000fd5b505050506040513d602081101561075057600080fd5b5051806107d0575060015460408051634209fff160e01b815233600482015290516001600160a01b0390921691634209fff191602480820192602092909190829003018186803b1580156107a357600080fd5b505afa1580156107b7573d6000803e3d6000fd5b505050506040513d60208110156107cd57600080fd5b50515b61080b5760405162461bcd60e51b815260040180806020018281038252602b8152602001806109b9602b913960400191505060405180910390fd5b816000826040518082805190602001908083835b6020831061083e5780518252601f19909201916020918201910161081f565b51815160209384036101000a6000190180199092169116179052920194855250604051938490038101909320845161087f959194919091019250905061091d565b507f6ccf37df8aa414466c08b8249d9d903633308303a1f52295c633f7bd6ed55443816040518080602001828103825283818151815260200191508051906020019080838360005b838110156108df5781810151838201526020016108c7565b50505050905090810190601f16801561090c5780820380516001836020036101000a031916815260200191505b509250505060405180910390a15050565b828054600181600116156101000203166002900490600052602060002090601f016020900481019282601f1061095e57805160ff191683800117855561098b565b8280016001018555821561098b579182015b8281111561098b578251825591602001919060010190610970565b5061099792915061099b565b5090565b6109b591905b8082111561099757600081556001016109a1565b9056fe796f7520646f206e6f7420686176652074686520726967687420746f20646f207468697320616374696f6ea265627a7a72315820c0423a699baf416f03b893980a8922e955153d73e986c8581c49257fab89315064736f6c63430005100032",
  "source": "pragma solidity >=0.4.22 <0.9.0;\r\n\r\nimport \"./IAdministrator.sol\";\r\n\r\n\r\ncontract Mashing {\r\n\r\n\r\n    mapping ( string \r\n    => string) Mashings ; \r\n\r\n    \r\n    address AdministratorAddress;\r\n\r\n    \r\n    event mashingAdded(string idMashing);\r\n    event mashingUpdated(string idMashing , string updateMashing);\r\n\r\n\r\n  constructor(address admin ) public {\r\n  \r\n    AdministratorAddress = admin;\r\n  \r\n  }\r\n\r\n\r\n  // modifier onlyAdmin() {\r\n  //     require(IAdministrator(AdministratorAddress).isAdmin(msg.sender), \"only Admin can do this action\");\r\n  //     _;\r\n  // }\r\n\r\n  // modifier onlyUser() {\r\n  //     require(IAdministrator(AdministratorAddress).isUser(msg.sender), \"only users can do this action\");\r\n  //     _;\r\n  // }\r\n\r\n    modifier onlyAdminOrUser(){\r\n      require((IAdministrator(AdministratorAddress).isAdmin(msg.sender)||(IAdministrator(AdministratorAddress).isUser(msg.sender)))\r\n      ,\"you do not have the right to do this action\");\r\n      _;\r\n    }\r\n\r\n  function addMashing(string memory a , string memory x) public onlyAdminOrUser {\r\n    Mashings[x] = a ;\r\n    emit mashingAdded(x);\r\n  }\r\n\r\n  function getMashing (string memory b ) public view returns (string memory ){\r\n      return Mashings[b];\r\n  }\r\n\r\n  function updateMashing(string memory a , string memory id) public onlyAdminOrUser { //a is the object , id is the index\r\n    //Mashings[id] = a ;\r\n    emit mashingUpdated(id , a);\r\n  }\r\n\r\n  \r\n}",
  "sourcePath": "C:/jawaher/Jawaher/Jawaher/Adelphi-distillery/Adelphi-Dis-Contract/contracts/Mashing.sol",
  "compiler": {
    "name": "solc",
    "version": "0.5.16+commit.9c3226ce.Emscripten.clang"
  },
  "schemaVersion": "3.3.4",
  "updatedAt": "2021-06-27T21:23:26.549Z",
  "networkType": "ethereum",
  "devdoc": {
    "methods": {}
  },
  "userdoc": {
    "methods": {}
  }
}