{
  "contractName": "Spirit",
  "abi": [
    {
      "inputs": [
        {
          "internalType": "address",
          "name": "admin",
          "type": "address"
        }
      ],
      "payable": false,
      "stateMutability": "nonpayable",
      "type": "constructor"
    },
    {
      "anonymous": false,
      "inputs": [
        {
          "indexed": false,
          "internalType": "string",
          "name": "idSpirit",
          "type": "string"
        }
      ],
      "name": "spiritAdded",
      "type": "event"
    },
    {
      "anonymous": false,
      "inputs": [
        {
          "indexed": false,
          "internalType": "string",
          "name": "idSpirit",
          "type": "string"
        },
        {
          "indexed": false,
          "internalType": "string",
          "name": "updateSpirit",
          "type": "string"
        }
      ],
      "name": "spiritUpdated",
      "type": "event"
    },
    {
      "constant": false,
      "inputs": [
        {
          "internalType": "string",
          "name": "a",
          "type": "string"
        },
        {
          "internalType": "string",
          "name": "id",
          "type": "string"
        }
      ],
      "name": "addSpirit",
      "outputs": [],
      "payable": false,
      "stateMutability": "nonpayable",
      "type": "function"
    },
    {
      "constant": true,
      "inputs": [
        {
          "internalType": "string",
          "name": "b",
          "type": "string"
        }
      ],
      "name": "getSpirit",
      "outputs": [
        {
          "internalType": "string",
          "name": "",
          "type": "string"
        }
      ],
      "payable": false,
      "stateMutability": "view",
      "type": "function"
    },
    {
      "constant": false,
      "inputs": [
        {
          "internalType": "string",
          "name": "a",
          "type": "string"
        },
        {
          "internalType": "string",
          "name": "id",
          "type": "string"
        }
      ],
      "name": "updateSpirit",
      "outputs": [],
      "payable": false,
      "stateMutability": "nonpayable",
      "type": "function"
    }
  ],
  "bytecode": "0x608060405234801561001057600080fd5b50604051610a9d380380610a9d8339818101604052602081101561003357600080fd5b5051600180546001600160a01b0319166001600160a01b03909216919091179055610a3a806100636000396000f3fe608060405234801561001057600080fd5b50600436106100415760003560e01c80630b746d19146100465780635e09a5d21461017157806399e9915c1461028a575b600080fd5b61016f6004803603604081101561005c57600080fd5b810190602081018135600160201b81111561007657600080fd5b82018360208201111561008857600080fd5b803590602001918460018302840111600160201b831117156100a957600080fd5b91908080601f0160208091040260200160405190810160405280939291908181526020018383808284376000920191909152509295949360208101935035915050600160201b8111156100fb57600080fd5b82018360208201111561010d57600080fd5b803590602001918460018302840111600160201b8311171561012e57600080fd5b91908080601f0160208091040260200160405190810160405280939291908181526020018383808284376000920191909152509295506103b3945050505050565b005b6102156004803603602081101561018757600080fd5b810190602081018135600160201b8111156101a157600080fd5b8201836020820111156101b357600080fd5b803590602001918460018302840111600160201b831117156101d457600080fd5b91908080601f0160208091040260200160405190810160405280939291908181526020018383808284376000920191909152509295506105f5945050505050565b6040805160208082528351818301528351919283929083019185019080838360005b8381101561024f578181015183820152602001610237565b50505050905090810190601f16801561027c5780820380516001836020036101000a031916815260200191505b509250505060405180910390f35b61016f600480360360408110156102a057600080fd5b810190602081018135600160201b8111156102ba57600080fd5b8201836020820111156102cc57600080fd5b803590602001918460018302840111600160201b831117156102ed57600080fd5b91908080601f0160208091040260200160405190810160405280939291908181526020018383808284376000920191909152509295949360208101935035915050600160201b81111561033f57600080fd5b82018360208201111561035157600080fd5b803590602001918460018302840111600160201b8311171561037257600080fd5b91908080601f0160208091040260200160405190810160405280939291908181526020018383808284376000920191909152509295506106e9945050505050565b60015460408051630935e01b60e21b815233600482015290516001600160a01b03909216916324d7806c91602480820192602092909190829003018186803b1580156103fe57600080fd5b505afa158015610412573d6000803e3d6000fd5b505050506040513d602081101561042857600080fd5b5051806104a8575060015460408051634209fff160e01b815233600482015290516001600160a01b0390921691634209fff191602480820192602092909190829003018186803b15801561047b57600080fd5b505afa15801561048f573d6000803e3d6000fd5b505050506040513d60208110156104a557600080fd5b50515b6104e35760405162461bcd60e51b815260040180806020018281038252602b8152602001806109db602b913960400191505060405180910390fd5b816000826040518082805190602001908083835b602083106105165780518252601f1990920191602091820191016104f7565b51815160209384036101000a60001901801990921691161790529201948552506040519384900381019093208451610557959194919091019250905061093f565b507f868a181939dc0bb3ad3d1aa906eada1c6b548c81e5e00d48122f560ef05550fc816040518080602001828103825283818151815260200191508051906020019080838360005b838110156105b757818101518382015260200161059f565b50505050905090810190601f1680156105e45780820380516001836020036101000a031916815260200191505b509250505060405180910390a15050565b60606000826040518082805190602001908083835b602083106106295780518252601f19909201916020918201910161060a565b518151600019602094850361010090810a820192831692199390931691909117909252949092019687526040805197889003820188208054601f60026001831615909802909501169590950492830182900482028801820190528187529294509250508301828280156106dd5780601f106106b2576101008083540402835291602001916106dd565b820191906000526020600020905b8154815290600101906020018083116106c057829003601f168201915b50505050509050919050565b60015460408051630935e01b60e21b815233600482015290516001600160a01b03909216916324d7806c91602480820192602092909190829003018186803b15801561073457600080fd5b505afa158015610748573d6000803e3d6000fd5b505050506040513d602081101561075e57600080fd5b5051806107de575060015460408051634209fff160e01b815233600482015290516001600160a01b0390921691634209fff191602480820192602092909190829003018186803b1580156107b157600080fd5b505afa1580156107c5573d6000803e3d6000fd5b505050506040513d60208110156107db57600080fd5b50515b6108195760405162461bcd60e51b815260040180806020018281038252602b8152602001806109db602b913960400191505060405180910390fd5b6060610824826105f5565b905060018151101561083a5761083a83836103b3565b7f5ebaf0c8dfa5c7ad17d85973876eff02541e77e4896d8d4bc3893202309b84d28284604051808060200180602001838103835285818151815260200191508051906020019080838360005b8381101561089e578181015183820152602001610886565b50505050905090810190601f1680156108cb5780820380516001836020036101000a031916815260200191505b50838103825284518152845160209182019186019080838360005b838110156108fe5781810151838201526020016108e6565b50505050905090810190601f16801561092b5780820380516001836020036101000a031916815260200191505b5094505050505060405180910390a1505050565b828054600181600116156101000203166002900490600052602060002090601f016020900481019282601f1061098057805160ff19168380011785556109ad565b828001600101855582156109ad579182015b828111156109ad578251825591602001919060010190610992565b506109b99291506109bd565b5090565b6109d791905b808211156109b957600081556001016109c3565b9056fe796f7520646f206e6f7420686176652074686520726967687420746f20646f207468697320616374696f6ea265627a7a72315820755c1c01b6c70b0453bb7eb5ce6e6958ffadaefa71aed27c55069eb094fb635764736f6c63430005100032",
  "source": "pragma solidity >=0.4.22 <0.9.0;\r\n\r\nimport \"./IAdministrator.sol\";\r\n\r\n\r\ncontract Spirit {\r\n\r\n\r\n    mapping ( string => string) spirits ; \r\n\r\n\r\n    address AdministratorAddress;\r\n\r\n    \r\n    event spiritAdded(string idSpirit);\r\n    event spiritUpdated(string idSpirit ,string updateSpirit );\r\n\r\n\r\n  constructor(address admin ) public {\r\n  \r\n    AdministratorAddress = admin;\r\n  }\r\n\r\n\r\n\r\n    modifier onlyAdminOrUser(){\r\n      require((IAdministrator(AdministratorAddress).isAdmin(msg.sender)||(IAdministrator(AdministratorAddress).isUser(msg.sender)))\r\n      ,\"you do not have the right to do this action\");\r\n      _;\r\n    }\r\n\r\n  function addSpirit(string memory a , string memory id ) public onlyAdminOrUser {\r\n    spirits[id] = a ;\r\n    emit spiritAdded( id);\r\n  }\r\n\r\n  function getSpirit (string memory b ) public view returns (string memory ){\r\n      return spirits[b];\r\n  }\r\n\r\n  function updateSpirit(string memory a , string memory id) public onlyAdminOrUser {\r\n    //spirits[id] = a ;\r\n       string memory isFound = getSpirit(id);\r\n    if (bytes(isFound).length < 1)\r\n    {\r\n      addSpirit(a, id);\r\n    }\r\n    emit spiritUpdated(id , a);\r\n  }\r\n\r\n  \r\n}",
  "sourcePath": "C:/jawaher/Jawaher/Jawaher/Adelphi-distillery/Adelphi-Dis-Contract/contracts/Spirit.sol",
  "compiler": {
    "name": "solc",
    "version": "0.5.16+commit.9c3226ce.Emscripten.clang"
  },
  "schemaVersion": "3.3.4",
  "updatedAt": "2021-06-27T21:23:26.556Z",
  "networkType": "ethereum",
  "devdoc": {
    "methods": {}
  },
  "userdoc": {
    "methods": {}
  }
}