{
  "contractName": "StatementProduct",
  "abi": [
    {
      "inputs": [
        {
          "internalType": "address",
          "name": "admin",
          "type": "address"
        }
      ],
      "payable": false,
      "stateMutability": "nonpayable",
      "type": "constructor"
    },
    {
      "anonymous": false,
      "inputs": [
        {
          "indexed": false,
          "internalType": "string",
          "name": "idStatementProduct",
          "type": "string"
        }
      ],
      "name": "statementProductAdded",
      "type": "event"
    },
    {
      "anonymous": false,
      "inputs": [
        {
          "indexed": false,
          "internalType": "string",
          "name": "idStatementProduct",
          "type": "string"
        },
        {
          "indexed": false,
          "internalType": "string",
          "name": "updateStatementProduct",
          "type": "string"
        }
      ],
      "name": "statementProductUpdated",
      "type": "event"
    },
    {
      "constant": false,
      "inputs": [
        {
          "internalType": "string",
          "name": "a",
          "type": "string"
        },
        {
          "internalType": "string",
          "name": "id",
          "type": "string"
        }
      ],
      "name": "addStatementProduct",
      "outputs": [],
      "payable": false,
      "stateMutability": "nonpayable",
      "type": "function"
    },
    {
      "constant": true,
      "inputs": [
        {
          "internalType": "string",
          "name": "b",
          "type": "string"
        }
      ],
      "name": "getStatementProduct",
      "outputs": [
        {
          "internalType": "string",
          "name": "",
          "type": "string"
        }
      ],
      "payable": false,
      "stateMutability": "view",
      "type": "function"
    },
    {
      "constant": false,
      "inputs": [
        {
          "internalType": "string",
          "name": "a",
          "type": "string"
        },
        {
          "internalType": "string",
          "name": "id",
          "type": "string"
        }
      ],
      "name": "updateStatementProduct",
      "outputs": [],
      "payable": false,
      "stateMutability": "nonpayable",
      "type": "function"
    }
  ],
  "bytecode": "0x608060405234801561001057600080fd5b50604051610a7b380380610a7b8339818101604052602081101561003357600080fd5b5051600180546001600160a01b0319166001600160a01b03909216919091179055610a18806100636000396000f3fe608060405234801561001057600080fd5b50600436106100415760003560e01c8063902c22a414610046578063bb2560ea1461015f578063c9404ab31461028a575b600080fd5b6100ea6004803603602081101561005c57600080fd5b810190602081018135600160201b81111561007657600080fd5b82018360208201111561008857600080fd5b803590602001918460018302840111600160201b831117156100a957600080fd5b91908080601f0160208091040260200160405190810160405280939291908181526020018383808284376000920191909152509295506103b3945050505050565b6040805160208082528351818301528351919283929083019185019080838360005b8381101561012457818101518382015260200161010c565b50505050905090810190601f1680156101515780820380516001836020036101000a031916815260200191505b509250505060405180910390f35b6102886004803603604081101561017557600080fd5b810190602081018135600160201b81111561018f57600080fd5b8201836020820111156101a157600080fd5b803590602001918460018302840111600160201b831117156101c257600080fd5b91908080601f0160208091040260200160405190810160405280939291908181526020018383808284376000920191909152509295949360208101935035915050600160201b81111561021457600080fd5b82018360208201111561022657600080fd5b803590602001918460018302840111600160201b8311171561024757600080fd5b91908080601f0160208091040260200160405190810160405280939291908181526020018383808284376000920191909152509295506104a7945050505050565b005b610288600480360360408110156102a057600080fd5b810190602081018135600160201b8111156102ba57600080fd5b8201836020820111156102cc57600080fd5b803590602001918460018302840111600160201b831117156102ed57600080fd5b91908080601f0160208091040260200160405190810160405280939291908181526020018383808284376000920191909152509295949360208101935035915050600160201b81111561033f57600080fd5b82018360208201111561035157600080fd5b803590602001918460018302840111600160201b8311171561037257600080fd5b91908080601f0160208091040260200160405190810160405280939291908181526020018383808284376000920191909152509295506106e9945050505050565b60606000826040518082805190602001908083835b602083106103e75780518252601f1990920191602091820191016103c8565b518151600019602094850361010090810a820192831692199390931691909117909252949092019687526040805197889003820188208054601f600260018316159098029095011695909504928301829004820288018201905281875292945092505083018282801561049b5780601f106104705761010080835404028352916020019161049b565b820191906000526020600020905b81548152906001019060200180831161047e57829003601f168201915b50505050509050919050565b60015460408051630935e01b60e21b815233600482015290516001600160a01b03909216916324d7806c91602480820192602092909190829003018186803b1580156104f257600080fd5b505afa158015610506573d6000803e3d6000fd5b505050506040513d602081101561051c57600080fd5b50518061059c575060015460408051634209fff160e01b815233600482015290516001600160a01b0390921691634209fff191602480820192602092909190829003018186803b15801561056f57600080fd5b505afa158015610583573d6000803e3d6000fd5b505050506040513d602081101561059957600080fd5b50515b6105d75760405162461bcd60e51b815260040180806020018281038252602b8152602001806109b9602b913960400191505060405180910390fd5b816000826040518082805190602001908083835b6020831061060a5780518252601f1990920191602091820191016105eb565b51815160209384036101000a6000190180199092169116179052920194855250604051938490038101909320845161064b959194919091019250905061091d565b507f5d7fc422f4d59e6e25a53f2713671c1cc94fa48157c3cf29dbee1cd18a11a806816040518080602001828103825283818151815260200191508051906020019080838360005b838110156106ab578181015183820152602001610693565b50505050905090810190601f1680156106d85780820380516001836020036101000a031916815260200191505b509250505060405180910390a15050565b60015460408051630935e01b60e21b815233600482015290516001600160a01b03909216916324d7806c91602480820192602092909190829003018186803b15801561073457600080fd5b505afa158015610748573d6000803e3d6000fd5b505050506040513d602081101561075e57600080fd5b5051806107de575060015460408051634209fff160e01b815233600482015290516001600160a01b0390921691634209fff191602480820192602092909190829003018186803b1580156107b157600080fd5b505afa1580156107c5573d6000803e3d6000fd5b505050506040513d60208110156107db57600080fd5b50515b6108195760405162461bcd60e51b815260040180806020018281038252602b8152602001806109b9602b913960400191505060405180910390fd5b7f4061dee902303d1cc6b6ffa5cb50ef958c346f4987423b663eaa36ffc968426b8183604051808060200180602001838103835285818151815260200191508051906020019080838360005b8381101561087d578181015183820152602001610865565b50505050905090810190601f1680156108aa5780820380516001836020036101000a031916815260200191505b50838103825284518152845160209182019186019080838360005b838110156108dd5781810151838201526020016108c5565b50505050905090810190601f16801561090a5780820380516001836020036101000a031916815260200191505b5094505050505060405180910390a15050565b828054600181600116156101000203166002900490600052602060002090601f016020900481019282601f1061095e57805160ff191683800117855561098b565b8280016001018555821561098b579182015b8281111561098b578251825591602001919060010190610970565b5061099792915061099b565b5090565b6109b591905b8082111561099757600081556001016109a1565b9056fe796f7520646f206e6f7420686176652074686520726967687420746f20646f207468697320616374696f6ea265627a7a72315820b5219e9da7d28ccdb6a593bdfdd5fa5ce25791bb0303f664f46886118141ffe264736f6c63430005100032",
  "source": "pragma solidity >=0.4.22 <0.9.0;\r\n\r\nimport \"./IAdministrator.sol\";\r\n\r\n\r\ncontract StatementProduct {\r\n\r\n\r\n    mapping ( string => string) statementProducts ; \r\n\r\n\r\n    address AdministratorAddress;\r\n\r\n    \r\n    event statementProductAdded(string idStatementProduct);\r\n    event statementProductUpdated(string idStatementProduct , string updateStatementProduct );\r\n\r\n\r\n  constructor(address admin ) public {\r\n  \r\n    AdministratorAddress = admin;\r\n\r\n  }\r\n\r\n\r\n\r\n    modifier onlyAdminOrUser(){\r\n      require((IAdministrator(AdministratorAddress).isAdmin(msg.sender)||(IAdministrator(AdministratorAddress).isUser(msg.sender)))\r\n      ,\"you do not have the right to do this action\");\r\n      _;\r\n    }\r\n\r\n  function addStatementProduct(string memory a , string memory id ) public onlyAdminOrUser {\r\n     statementProducts[id] = a ;\r\n     emit statementProductAdded(id);\r\n  }\r\n\r\n  function getStatementProduct (string memory b ) public view returns (string memory ){\r\n      return statementProducts[b];\r\n  }\r\n\r\n  function updateStatementProduct(string memory a , string memory id) public onlyAdminOrUser {\r\n    //  statementProducts[id] = a ;\r\n    emit statementProductUpdated(id , a);\r\n  }\r\n\r\n  \r\n}",
  "sourcePath": "C:/jawaher/Jawaher/Jawaher/Adelphi-distillery/Adelphi-Dis-Contract/contracts/StatementProduct.sol",
  "compiler": {
    "name": "solc",
    "version": "0.5.16+commit.9c3226ce.Emscripten.clang"
  },
  "schemaVersion": "3.3.4",
  "updatedAt": "2021-06-27T21:23:26.577Z",
  "networkType": "ethereum",
  "devdoc": {
    "methods": {}
  },
  "userdoc": {
    "methods": {}
  }
}