{
  "contractName": "Stock",
  "abi": [
    {
      "inputs": [
        {
          "internalType": "address",
          "name": "admin",
          "type": "address"
        }
      ],
      "payable": false,
      "stateMutability": "nonpayable",
      "type": "constructor"
    },
    {
      "anonymous": false,
      "inputs": [
        {
          "indexed": false,
          "internalType": "string",
          "name": "idStock",
          "type": "string"
        }
      ],
      "name": "activateStocktransaction",
      "type": "event"
    },
    {
      "anonymous": false,
      "inputs": [
        {
          "indexed": false,
          "internalType": "string",
          "name": "idStock",
          "type": "string"
        }
      ],
      "name": "deactivateStocktransaction",
      "type": "event"
    },
    {
      "anonymous": false,
      "inputs": [
        {
          "indexed": false,
          "internalType": "string",
          "name": "idStock",
          "type": "string"
        }
      ],
      "name": "stockAdded",
      "type": "event"
    },
    {
      "anonymous": false,
      "inputs": [
        {
          "indexed": false,
          "internalType": "string",
          "name": "idStock",
          "type": "string"
        }
      ],
      "name": "stockUpdated",
      "type": "event"
    },
    {
      "constant": false,
      "inputs": [
        {
          "internalType": "string",
          "name": "b",
          "type": "string"
        }
      ],
      "name": "activateStock",
      "outputs": [],
      "payable": false,
      "stateMutability": "nonpayable",
      "type": "function"
    },
    {
      "constant": false,
      "inputs": [
        {
          "internalType": "string",
          "name": "b",
          "type": "string"
        }
      ],
      "name": "deactivateStock",
      "outputs": [],
      "payable": false,
      "stateMutability": "nonpayable",
      "type": "function"
    },
    {
      "constant": false,
      "inputs": [
        {
          "internalType": "string",
          "name": "a",
          "type": "string"
        },
        {
          "internalType": "string",
          "name": "idStock",
          "type": "string"
        }
      ],
      "name": "addStock",
      "outputs": [],
      "payable": false,
      "stateMutability": "nonpayable",
      "type": "function"
    },
    {
      "constant": true,
      "inputs": [
        {
          "internalType": "string",
          "name": "b",
          "type": "string"
        }
      ],
      "name": "getStock",
      "outputs": [
        {
          "internalType": "string",
          "name": "",
          "type": "string"
        },
        {
          "internalType": "bool",
          "name": "",
          "type": "bool"
        }
      ],
      "payable": false,
      "stateMutability": "view",
      "type": "function"
    },
    {
      "constant": false,
      "inputs": [
        {
          "internalType": "string",
          "name": "a",
          "type": "string"
        },
        {
          "internalType": "string",
          "name": "id",
          "type": "string"
        }
      ],
      "name": "updateStock",
      "outputs": [],
      "payable": false,
      "stateMutability": "nonpayable",
      "type": "function"
    }
  ],
  "bytecode": "0x608060405234801561001057600080fd5b50604051610fc5380380610fc58339818101604052602081101561003357600080fd5b5051600280546001600160a01b0319166001600160a01b03909216919091179055610f62806100636000396000f3fe608060405234801561001057600080fd5b50600436106100575760003560e01c8063137cdbcd1461005c57806314afeb14146101025780639b1e8f3e1461022b578063ca7a7b7a146102cf578063df6e18c6146103f6575b600080fd5b6101006004803603602081101561007257600080fd5b810190602081018135600160201b81111561008c57600080fd5b82018360208201111561009e57600080fd5b803590602001918460018302840111600160201b831117156100bf57600080fd5b91908080601f01602080910402602001604051908101604052809392919081815260200183838082843760009201919091525092955061051f945050505050565b005b6101006004803603604081101561011857600080fd5b810190602081018135600160201b81111561013257600080fd5b82018360208201111561014457600080fd5b803590602001918460018302840111600160201b8311171561016557600080fd5b91908080601f0160208091040260200160405190810160405280939291908181526020018383808284376000920191909152509295949360208101935035915050600160201b8111156101b757600080fd5b8201836020820111156101c957600080fd5b803590602001918460018302840111600160201b831117156101ea57600080fd5b91908080601f0160208091040260200160405190810160405280939291908181526020018383808284376000920191909152509295506106ec945050505050565b6101006004803603602081101561024157600080fd5b810190602081018135600160201b81111561025b57600080fd5b82018360208201111561026d57600080fd5b803590602001918460018302840111600160201b8311171561028e57600080fd5b91908080601f01602080910402602001604051908101604052809392919081815260200183838082843760009201919091525092955061092e945050505050565b610373600480360360208110156102e557600080fd5b810190602081018135600160201b8111156102ff57600080fd5b82018360208201111561031157600080fd5b803590602001918460018302840111600160201b8311171561033257600080fd5b91908080601f016020809104026020016040519081016040528093929190818152602001838380828437600092019190915250929550610aba945050505050565b604051808060200183151515158152602001828103825284818151815260200191508051906020019080838360005b838110156103ba5781810151838201526020016103a2565b50505050905090810190601f1680156103e75780820380516001836020036101000a031916815260200191505b50935050505060405180910390f35b6101006004803603604081101561040c57600080fd5b810190602081018135600160201b81111561042657600080fd5b82018360208201111561043857600080fd5b803590602001918460018302840111600160201b8311171561045957600080fd5b91908080601f0160208091040260200160405190810160405280939291908181526020018383808284376000920191909152509295949360208101935035915050600160201b8111156104ab57600080fd5b8201836020820111156104bd57600080fd5b803590602001918460018302840111600160201b831117156104de57600080fd5b91908080601f016020809104026020016040519081016040528093929190818152602001838380828437600092019190915250929550610c1c945050505050565b60025460408051630935e01b60e21b815233600482015290516001600160a01b03909216916324d7806c91602480820192602092909190829003018186803b15801561056a57600080fd5b505afa15801561057e573d6000803e3d6000fd5b505050506040513d602081101561059457600080fd5b50516105e7576040805162461bcd60e51b815260206004820152601d60248201527f6f6e6c792041646d696e2063616e20646f207468697320616374696f6e000000604482015290519081900360640190fd5b60006001826040518082805190602001908083835b6020831061061b5780518252601f1990920191602091820191016105fc565b51815160209384036101000a6000190180199092169116179052920194855250604080519485900382018520805460ff19169615159690961790955580845285518482015285517fd36897c3a5d51be59209bf0dbaddc8a48c044f88356cb2ddbb4ec687efa22875958795945084935083019185019080838360005b838110156106af578181015183820152602001610697565b50505050905090810190601f1680156106dc5780820380516001836020036101000a031916815260200191505b509250505060405180910390a150565b60025460408051630935e01b60e21b815233600482015290516001600160a01b03909216916324d7806c91602480820192602092909190829003018186803b15801561073757600080fd5b505afa15801561074b573d6000803e3d6000fd5b505050506040513d602081101561076157600080fd5b5051806107e1575060025460408051634209fff160e01b815233600482015290516001600160a01b0390921691634209fff191602480820192602092909190829003018186803b1580156107b457600080fd5b505afa1580156107c8573d6000803e3d6000fd5b505050506040513d60208110156107de57600080fd5b50515b61081c5760405162461bcd60e51b815260040180806020018281038252602b815260200180610f03602b913960400191505060405180910390fd5b816000826040518082805190602001908083835b6020831061084f5780518252601f199092019160209182019101610830565b51815160209384036101000a600019018019909216911617905292019485525060405193849003810190932084516108909591949190910192509050610e67565b507f86e5618366f50395b20fc2d70403e10155a785a61a727a3edd25ca3b38008034816040518080602001828103825283818151815260200191508051906020019080838360005b838110156108f05781810151838201526020016108d8565b50505050905090810190601f16801561091d5780820380516001836020036101000a031916815260200191505b509250505060405180910390a15050565b60025460408051630935e01b60e21b815233600482015290516001600160a01b03909216916324d7806c91602480820192602092909190829003018186803b15801561097957600080fd5b505afa15801561098d573d6000803e3d6000fd5b505050506040513d60208110156109a357600080fd5b50516109f6576040805162461bcd60e51b815260206004820152601d60248201527f6f6e6c792041646d696e2063616e20646f207468697320616374696f6e000000604482015290519081900360640190fd5b600180826040518082805190602001908083835b60208310610a295780518252601f199092019160209182019101610a0a565b51815160209384036101000a6000190180199092169116179052920194855250604080519485900382018520805460ff19169615159690961790955580845285518482015285517f7447ff39cf989cacc54ff39476c5059b0ece522eb47c781a10486d66ef89997d9587959450849350830191850190808383600083156106af578181015183820152602001610697565b6060600080836040518082805190602001908083835b60208310610aef5780518252601f199092019160209182019101610ad0565b51815160209384036101000a600019018019909216911617905292019485525060405193849003810184208751909460019450889350918291908401908083835b60208310610b4f5780518252601f199092019160209182019101610b30565b518151600019602094850361010090810a82019283169219939093169190911790925294909201968752604080519788900382018820548954601f600260018316159098029095011695909504928301829004820288018201905281875260ff909316959450869350918401905082828015610c0c5780601f10610be157610100808354040283529160200191610c0c565b820191906000526020600020905b815481529060010190602001808311610bef57829003601f168201915b5050505050915091509150915091565b60025460408051630935e01b60e21b815233600482015290516001600160a01b03909216916324d7806c91602480820192602092909190829003018186803b158015610c6757600080fd5b505afa158015610c7b573d6000803e3d6000fd5b505050506040513d6020811015610c9157600080fd5b505180610d11575060025460408051634209fff160e01b815233600482015290516001600160a01b0390921691634209fff191602480820192602092909190829003018186803b158015610ce457600080fd5b505afa158015610cf8573d6000803e3d6000fd5b505050506040513d6020811015610d0e57600080fd5b50515b610d4c5760405162461bcd60e51b815260040180806020018281038252602b815260200180610f03602b913960400191505060405180910390fd5b816000826040518082805190602001908083835b60208310610d7f5780518252601f199092019160209182019101610d60565b51815160209384036101000a60001901801990921691161790529201948552506040519384900381019093208451610dc09591949190910192509050610e67565b507f47a69ee96eb21947cb57030391678e909abfc3108b282fe6033692f5254af04b816040518080602001828103825283818151815260200191508051906020019080838360005b83811015610e20578181015183820152602001610e08565b50505050905090810190601f168015610e4d5780820380516001836020036101000a031916815260200191505b509250505060405180910390a1610e638161051f565b5050565b828054600181600116156101000203166002900490600052602060002090601f016020900481019282601f10610ea857805160ff1916838001178555610ed5565b82800160010185558215610ed5579182015b82811115610ed5578251825591602001919060010190610eba565b50610ee1929150610ee5565b5090565b610eff91905b80821115610ee15760008155600101610eeb565b9056fe796f7520646f206e6f7420686176652074686520726967687420746f20646f207468697320616374696f6ea265627a7a723158203269980e50d5d4dcb5a4e2509ed11129d9679721d36d5272dd5fe449fe15b49664736f6c63430005100032",
  "source": "pragma solidity >=0.4.22 <0.9.0;\r\n\r\nimport \"./IAdministrator.sol\";\r\n\r\n\r\ncontract Stock {\r\n\r\n\r\n    mapping ( string => string) stocks ; \r\n    mapping ( string => bool) deactiveStocks ;\r\n\r\n    address AdministratorAddress;\r\n    \r\n    event stockAdded(string idStock);\r\n    event stockUpdated(string idStock );\r\n    event deactivateStocktransaction(string idStock);\r\n    event activateStocktransaction(string idStock);\r\n\r\n\r\n  constructor(address admin ) public {\r\n  \r\n    AdministratorAddress = admin;\r\n\r\n  }\r\n\r\n    modifier onlyAdmin() {\r\n        require(IAdministrator(AdministratorAddress).isAdmin(msg.sender), \"only Admin can do this action\");\r\n        _;\r\n    }\r\n\r\n    modifier onlyAdminOrUser(){\r\n      require((IAdministrator(AdministratorAddress).isAdmin(msg.sender)||(IAdministrator(AdministratorAddress).isUser(msg.sender)))\r\n      ,\"you do not have the right to do this action\");\r\n      _;\r\n    }\r\n\r\n\r\n  function activateStock(string memory b) public onlyAdmin {\r\n     deactiveStocks[b]=false;\r\n     emit activateStocktransaction(b);\r\n  }\r\n\r\n  function deactivateStock(string memory b) public onlyAdmin {\r\n     deactiveStocks[b]=true;\r\n     emit deactivateStocktransaction(b);\r\n  }\r\n\r\n  function addStock(string memory a , string memory idStock ) public onlyAdminOrUser {\r\n     stocks[idStock] = a ;\r\n     emit stockAdded(idStock);\r\n     activateStock(idStock) ;\r\n  }\r\n\r\n  function getStock (string memory b ) public view returns (string memory , bool ){\r\n      return (stocks[b] , deactiveStocks[b]);\r\n  }\r\n\r\n  function updateStock(string memory a , string memory id) public onlyAdminOrUser {\r\n      stocks[id] = a ;\r\n    emit stockUpdated(id);\r\n  }\r\n\r\n  \r\n}",
  "sourcePath": "C:/jawaher/Jawaher/Jawaher/Adelphi-distillery/Adelphi-Dis-Contract/contracts/Stock.sol",
  "compiler": {
    "name": "solc",
    "version": "0.5.16+commit.9c3226ce.Emscripten.clang"
  },
  "schemaVersion": "3.3.4",
  "updatedAt": "2021-06-27T21:23:26.573Z",
  "networkType": "ethereum",
  "devdoc": {
    "methods": {}
  },
  "userdoc": {
    "methods": {}
  }
}