{
  "contractName": "Wash",
  "abi": [
    {
      "inputs": [
        {
          "internalType": "address",
          "name": "admin",
          "type": "address"
        }
      ],
      "payable": false,
      "stateMutability": "nonpayable",
      "type": "constructor"
    },
    {
      "anonymous": false,
      "inputs": [
        {
          "indexed": false,
          "internalType": "string",
          "name": "idWash",
          "type": "string"
        }
      ],
      "name": "washAdded",
      "type": "event"
    },
    {
      "anonymous": false,
      "inputs": [
        {
          "indexed": false,
          "internalType": "string",
          "name": "idWash",
          "type": "string"
        },
        {
          "indexed": false,
          "internalType": "string",
          "name": "updateWash",
          "type": "string"
        }
      ],
      "name": "washUpdated",
      "type": "event"
    },
    {
      "constant": false,
      "inputs": [
        {
          "internalType": "string",
          "name": "a",
          "type": "string"
        },
        {
          "internalType": "string",
          "name": "x",
          "type": "string"
        }
      ],
      "name": "addWash",
      "outputs": [],
      "payable": false,
      "stateMutability": "nonpayable",
      "type": "function"
    },
    {
      "constant": true,
      "inputs": [
        {
          "internalType": "string",
          "name": "b",
          "type": "string"
        }
      ],
      "name": "getWash",
      "outputs": [
        {
          "internalType": "string",
          "name": "",
          "type": "string"
        }
      ],
      "payable": false,
      "stateMutability": "view",
      "type": "function"
    },
    {
      "constant": false,
      "inputs": [
        {
          "internalType": "string",
          "name": "a",
          "type": "string"
        },
        {
          "internalType": "string",
          "name": "id",
          "type": "string"
        }
      ],
      "name": "updateWash",
      "outputs": [],
      "payable": false,
      "stateMutability": "nonpayable",
      "type": "function"
    }
  ],
  "bytecode": "0x608060405234801561001057600080fd5b50604051610a9d380380610a9d8339818101604052602081101561003357600080fd5b5051600180546001600160a01b0319166001600160a01b03909216919091179055610a3a806100636000396000f3fe608060405234801561001057600080fd5b50600436106100415760003560e01c8063270c38f914610046578063402bcda4146101715780637274a4831461029a575b600080fd5b61016f6004803603604081101561005c57600080fd5b810190602081018135600160201b81111561007657600080fd5b82018360208201111561008857600080fd5b803590602001918460018302840111600160201b831117156100a957600080fd5b91908080601f0160208091040260200160405190810160405280939291908181526020018383808284376000920191909152509295949360208101935035915050600160201b8111156100fb57600080fd5b82018360208201111561010d57600080fd5b803590602001918460018302840111600160201b8311171561012e57600080fd5b91908080601f0160208091040260200160405190810160405280939291908181526020018383808284376000920191909152509295506103b3945050505050565b005b61016f6004803603604081101561018757600080fd5b810190602081018135600160201b8111156101a157600080fd5b8201836020820111156101b357600080fd5b803590602001918460018302840111600160201b831117156101d457600080fd5b91908080601f0160208091040260200160405190810160405280939291908181526020018383808284376000920191909152509295949360208101935035915050600160201b81111561022657600080fd5b82018360208201111561023857600080fd5b803590602001918460018302840111600160201b8311171561025957600080fd5b91908080601f016020809104026020016040519081016040528093929190818152602001838380828437600092019190915250929550610609945050505050565b61033e600480360360208110156102b057600080fd5b810190602081018135600160201b8111156102ca57600080fd5b8201836020820111156102dc57600080fd5b803590602001918460018302840111600160201b831117156102fd57600080fd5b91908080601f01602080910402602001604051908101604052809392919081815260200183838082843760009201919091525092955061084b945050505050565b6040805160208082528351818301528351919283929083019185019080838360005b83811015610378578181015183820152602001610360565b50505050905090810190601f1680156103a55780820380516001836020036101000a031916815260200191505b509250505060405180910390f35b60015460408051630935e01b60e21b815233600482015290516001600160a01b03909216916324d7806c91602480820192602092909190829003018186803b1580156103fe57600080fd5b505afa158015610412573d6000803e3d6000fd5b505050506040513d602081101561042857600080fd5b5051806104a8575060015460408051634209fff160e01b815233600482015290516001600160a01b0390921691634209fff191602480820192602092909190829003018186803b15801561047b57600080fd5b505afa15801561048f573d6000803e3d6000fd5b505050506040513d60208110156104a557600080fd5b50515b6104e35760405162461bcd60e51b815260040180806020018281038252602b8152602001806109db602b913960400191505060405180910390fd5b60606104ee8261084b565b9050600181511015610504576105048383610609565b7fce59b0ac29a93eaad4d113dc0507cfd23aa1d9553d73ceb97d7f31f9eb3a9f738284604051808060200180602001838103835285818151815260200191508051906020019080838360005b83811015610568578181015183820152602001610550565b50505050905090810190601f1680156105955780820380516001836020036101000a031916815260200191505b50838103825284518152845160209182019186019080838360005b838110156105c85781810151838201526020016105b0565b50505050905090810190601f1680156105f55780820380516001836020036101000a031916815260200191505b5094505050505060405180910390a1505050565b60015460408051630935e01b60e21b815233600482015290516001600160a01b03909216916324d7806c91602480820192602092909190829003018186803b15801561065457600080fd5b505afa158015610668573d6000803e3d6000fd5b505050506040513d602081101561067e57600080fd5b5051806106fe575060015460408051634209fff160e01b815233600482015290516001600160a01b0390921691634209fff191602480820192602092909190829003018186803b1580156106d157600080fd5b505afa1580156106e5573d6000803e3d6000fd5b505050506040513d60208110156106fb57600080fd5b50515b6107395760405162461bcd60e51b815260040180806020018281038252602b8152602001806109db602b913960400191505060405180910390fd5b816000826040518082805190602001908083835b6020831061076c5780518252601f19909201916020918201910161074d565b51815160209384036101000a600019018019909216911617905292019485525060405193849003810190932084516107ad959194919091019250905061093f565b507fbac905f5eae43d454c93747d16c6a0344c90e8944c0b05c13d5db5df04d6b6cc816040518080602001828103825283818151815260200191508051906020019080838360005b8381101561080d5781810151838201526020016107f5565b50505050905090810190601f16801561083a5780820380516001836020036101000a031916815260200191505b509250505060405180910390a15050565b60606000826040518082805190602001908083835b6020831061087f5780518252601f199092019160209182019101610860565b518151600019602094850361010090810a820192831692199390931691909117909252949092019687526040805197889003820188208054601f60026001831615909802909501169590950492830182900482028801820190528187529294509250508301828280156109335780601f1061090857610100808354040283529160200191610933565b820191906000526020600020905b81548152906001019060200180831161091657829003601f168201915b50505050509050919050565b828054600181600116156101000203166002900490600052602060002090601f016020900481019282601f1061098057805160ff19168380011785556109ad565b828001600101855582156109ad579182015b828111156109ad578251825591602001919060010190610992565b506109b99291506109bd565b5090565b6109d791905b808211156109b957600081556001016109c3565b9056fe796f7520646f206e6f7420686176652074686520726967687420746f20646f207468697320616374696f6ea265627a7a723158206b1c42916744825f82a1eb28135b5d19c531c1064784285b0e011d82b61e77c064736f6c63430005100032",
  "source": "pragma solidity >=0.4.22 <0.9.0;\r\n\r\nimport \"./IAdministrator.sol\";\r\n\r\n\r\ncontract Wash {\r\n\r\n\r\n    mapping ( string => string) washs ; \r\n\r\n\r\n    address AdministratorAddress;\r\n\r\n    \r\n    event washAdded(string idWash);\r\n    event washUpdated(string idWash  , string updateWash);\r\n\r\n\r\n  constructor(address admin ) public {\r\n  \r\n    AdministratorAddress = admin;\r\n\r\n  }\r\n\r\n\r\n\r\n    modifier onlyAdminOrUser(){\r\n      require((IAdministrator(AdministratorAddress).isAdmin(msg.sender)||(IAdministrator(AdministratorAddress).isUser(msg.sender)))\r\n      ,\"you do not have the right to do this action\");\r\n      _;\r\n    }\r\n\r\n  function addWash(string memory a , string memory x ) public onlyAdminOrUser {\r\n     washs[x] = a ;\r\n     emit washAdded(x);\r\n  }\r\n\r\n  function getWash (string memory b ) public view returns (string memory ){\r\n      return washs[b];\r\n  }\r\n\r\n  function updateWash(string memory a , string memory id) public onlyAdminOrUser {\r\n     // washs[id] = a ;\r\n    string memory isFound = getWash(id);\r\n    if (bytes(isFound).length < 1)\r\n    {\r\n      addWash(a, id);\r\n    }\r\n    emit washUpdated(id , a);\r\n  }\r\n\r\n  \r\n}",
  "sourcePath": "C:/jawaher/Jawaher/Jawaher/Adelphi-distillery/Adelphi-Dis-Contract/contracts/Wash.sol",
  "compiler": {
    "name": "solc",
    "version": "0.5.16+commit.9c3226ce.Emscripten.clang"
  },
  "schemaVersion": "3.3.4",
  "updatedAt": "2021-06-27T21:23:26.565Z",
  "networkType": "ethereum",
  "devdoc": {
    "methods": {}
  },
  "userdoc": {
    "methods": {}
  }
}