{
  "contractName": "Administrators",
  "abi": [
    {
      "inputs": [],
      "stateMutability": "nonpayable",
      "type": "constructor"
    },
    {
      "inputs": [
        {
          "internalType": "address",
          "name": "a",
          "type": "address"
        }
      ],
      "name": "addSuperAdmin",
      "outputs": [],
      "stateMutability": "nonpayable",
      "type": "function"
    },
    {
      "inputs": [
        {
          "internalType": "address",
          "name": "a",
          "type": "address"
        }
      ],
      "name": "isSuperAdmin",
      "outputs": [
        {
          "internalType": "bool",
          "name": "",
          "type": "bool"
        }
      ],
      "stateMutability": "view",
      "type": "function"
    },
    {
      "inputs": [
        {
          "internalType": "address",
          "name": "a",
          "type": "address"
        }
      ],
      "name": "removeSuperAdmin",
      "outputs": [],
      "stateMutability": "nonpayable",
      "type": "function"
    },
    {
      "inputs": [
        {
          "internalType": "address",
          "name": "a",
          "type": "address"
        }
      ],
      "name": "addNgo",
      "outputs": [],
      "stateMutability": "nonpayable",
      "type": "function"
    },
    {
      "inputs": [
        {
          "internalType": "address",
          "name": "a",
          "type": "address"
        }
      ],
      "name": "isNgo",
      "outputs": [
        {
          "internalType": "bool",
          "name": "",
          "type": "bool"
        }
      ],
      "stateMutability": "view",
      "type": "function"
    },
    {
      "inputs": [
        {
          "internalType": "address",
          "name": "a",
          "type": "address"
        }
      ],
      "name": "removeNgo",
      "outputs": [],
      "stateMutability": "nonpayable",
      "type": "function"
    },
    {
      "inputs": [
        {
          "internalType": "address",
          "name": "a",
          "type": "address"
        }
      ],
      "name": "addVendor",
      "outputs": [],
      "stateMutability": "nonpayable",
      "type": "function"
    },
    {
      "inputs": [
        {
          "internalType": "address",
          "name": "a",
          "type": "address"
        }
      ],
      "name": "isVendor",
      "outputs": [
        {
          "internalType": "bool",
          "name": "",
          "type": "bool"
        }
      ],
      "stateMutability": "view",
      "type": "function"
    },
    {
      "inputs": [
        {
          "internalType": "address",
          "name": "a",
          "type": "address"
        }
      ],
      "name": "removeVendor",
      "outputs": [],
      "stateMutability": "nonpayable",
      "type": "function"
    },
    {
      "inputs": [
        {
          "internalType": "address",
          "name": "a",
          "type": "address"
        }
      ],
      "name": "addUser",
      "outputs": [],
      "stateMutability": "nonpayable",
      "type": "function"
    },
    {
      "inputs": [
        {
          "internalType": "address",
          "name": "a",
          "type": "address"
        }
      ],
      "name": "isUser",
      "outputs": [
        {
          "internalType": "bool",
          "name": "",
          "type": "bool"
        }
      ],
      "stateMutability": "view",
      "type": "function"
    },
    {
      "inputs": [
        {
          "internalType": "address",
          "name": "a",
          "type": "address"
        }
      ],
      "name": "removeUser",
      "outputs": [],
      "stateMutability": "nonpayable",
      "type": "function"
    },
    {
      "inputs": [
        {
          "internalType": "address",
          "name": "a",
          "type": "address"
        }
      ],
      "name": "addVaccinTeam",
      "outputs": [],
      "stateMutability": "nonpayable",
      "type": "function"
    },
    {
      "inputs": [
        {
          "internalType": "address",
          "name": "a",
          "type": "address"
        }
      ],
      "name": "isVaccinTeam",
      "outputs": [
        {
          "internalType": "bool",
          "name": "",
          "type": "bool"
        }
      ],
      "stateMutability": "view",
      "type": "function"
    },
    {
      "inputs": [
        {
          "internalType": "address",
          "name": "a",
          "type": "address"
        }
      ],
      "name": "removeVaccinTeam",
      "outputs": [],
      "stateMutability": "nonpayable",
      "type": "function"
    }
  ],
  "bytecode": "0x608060405234801561001057600080fd5b50336000908152600360205260409020805460ff191660011790556108758061003a6000396000f3fe608060405234801561001057600080fd5b50600436106100f55760003560e01c80639857518811610097578063d3d6e9f511610066578063d3d6e9f5146102b2578063df7f453b146102d8578063ee54d54f146102fe578063ef48d16114610324576100f5565b8063985751881461021a578063b3292ff014610240578063c2cec68e14610266578063d1c6c3511461028c576100f5565b80634902e4aa116100d35780634902e4aa1461018257806354b622c9146101a8578063582f0c09146101ce578063953e8f91146101f4576100f5565b80634209fff1146100fa578063421b2d8b1461013457806345e0f7531461015c575b600080fd5b6101206004803603602081101561011057600080fd5b50356001600160a01b031661034a565b604080519115158252519081900360200190f35b61015a6004803603602081101561014a57600080fd5b50356001600160a01b0316610368565b005b61015a6004803603602081101561017257600080fd5b50356001600160a01b03166103d7565b61015a6004803603602081101561019857600080fd5b50356001600160a01b0316610443565b61015a600480360360208110156101be57600080fd5b50356001600160a01b03166104a8565b610120600480360360208110156101e457600080fd5b50356001600160a01b0316610511565b6101206004803603602081101561020a57600080fd5b50356001600160a01b031661052f565b61015a6004803603602081101561023057600080fd5b50356001600160a01b031661054d565b61015a6004803603602081101561025657600080fd5b50356001600160a01b03166105b6565b61015a6004803603602081101561027c57600080fd5b50356001600160a01b031661061e565b61015a600480360360208110156102a257600080fd5b50356001600160a01b031661068a565b61015a600480360360208110156102c857600080fd5b50356001600160a01b03166106f3565b610120600480360360208110156102ee57600080fd5b50356001600160a01b0316610758565b6101206004803603602081101561031457600080fd5b50356001600160a01b0316610776565b61015a6004803603602081101561033a57600080fd5b50356001600160a01b0316610794565b6001600160a01b031660009081526001602052604090205460ff1690565b61037133610511565b6103b0576040805162461bcd60e51b815260206004820152601d6024820152600080516020610820833981519152604482015290519081900360640190fd5b6001600160a01b03166000908152600160208190526040909120805460ff19169091179055565b6103e033610511565b61041f576040805162461bcd60e51b815260206004820152601d6024820152600080516020610820833981519152604482015290519081900360640190fd5b6001600160a01b03166000908152602081905260409020805460ff19166001179055565b61044c33610758565b6104875760405162461bcd60e51b81526004018080602001828103825260238152602001806107fd6023913960400191505060405180910390fd5b6001600160a01b03166000908152600360205260409020805460ff19169055565b6104b133610511565b6104f0576040805162461bcd60e51b815260206004820152601d6024820152600080516020610820833981519152604482015290519081900360640190fd5b6001600160a01b03166000908152602081905260409020805460ff19169055565b6001600160a01b031660009081526002602052604090205460ff1690565b6001600160a01b031660009081526004602052604090205460ff1690565b61055633610511565b610595576040805162461bcd60e51b815260206004820152601d6024820152600080516020610820833981519152604482015290519081900360640190fd5b6001600160a01b03166000908152600160205260409020805460ff19169055565b6105bf33610758565b6105fa5760405162461bcd60e51b81526004018080602001828103825260238152602001806107fd6023913960400191505060405180910390fd5b6001600160a01b03166000908152600360205260409020805460ff19166001179055565b61062733610511565b610666576040805162461bcd60e51b815260206004820152601d6024820152600080516020610820833981519152604482015290519081900360640190fd5b6001600160a01b03166000908152600460205260409020805460ff19166001179055565b61069333610511565b6106d2576040805162461bcd60e51b815260206004820152601d6024820152600080516020610820833981519152604482015290519081900360640190fd5b6001600160a01b03166000908152600460205260409020805460ff19169055565b6106fc33610758565b6107375760405162461bcd60e51b81526004018080602001828103825260238152602001806107fd6023913960400191505060405180910390fd5b6001600160a01b03166000908152600260205260409020805460ff19169055565b6001600160a01b031660009081526003602052604090205460ff1690565b6001600160a01b031660009081526020819052604090205460ff1690565b61079d33610758565b6107d85760405162461bcd60e51b81526004018080602001828103825260238152602001806107fd6023913960400191505060405180910390fd5b6001600160a01b03166000908152600260205260409020805460ff1916600117905556fe6f6e6c792073757065722061646d696e2063616e20646f207468697320616374696f6e6f6e6c792061646d696e2063616e20646f207468697320616374696f6e000000a26469706673582212205c4246fc532f11b4ba4d3d878a859252e61827f559895c196dcedbded0a5d65664736f6c63430006080033",
  "source": "pragma solidity >= 0.5.0 < 0.7.0;\r\n\r\n\r\nimport \"./IAdministrator.sol\";\r\n\r\ncontract Administrators is IAdministrator  {\r\n\r\n\r\n  mapping( address => bool) vendors;\r\n  mapping( address => bool) users;\r\n  mapping( address => bool) ngos;\r\n  mapping( address => bool) superAdmins;\r\n  mapping( address => bool) vaccinTeam;\r\n\r\n\r\n  \r\n  constructor() public {\r\n   superAdmins [msg.sender]=true;\r\n  }\r\n\r\n  modifier onlyNgo() {\r\n      require(isNgo(msg.sender), \"only admin can do this action\");\r\n      _;\r\n  }\r\n\r\n\r\n  modifier onlySuperAdmin() {\r\n      require(isSuperAdmin(msg.sender), \"only super admin can do this action\");\r\n      _;\r\n  }\r\n\r\n\r\n/********** Super Admin ***********/\r\n  function addSuperAdmin(address a ) public  onlySuperAdmin {\r\n    superAdmins[a] = true;\r\n  }\r\n\r\n  function isSuperAdmin(address a ) public  view  returns (bool)  {\r\n    return superAdmins[a];\r\n  }\r\n\r\n  function removeSuperAdmin(address a ) public  onlySuperAdmin {\r\n    superAdmins[a] = false ;\r\n  }\r\n\r\n\r\n\r\n/********* NGO ************/\r\n    function addNgo (address a ) public  onlySuperAdmin {\r\n    ngos[a] = true;\r\n  }\r\n\r\n  function isNgo(address a ) public view override returns (bool) {\r\n    return ngos[a];\r\n  }\r\n\r\n  function removeNgo (address a ) public   onlySuperAdmin {\r\n    ngos[a] = false ;\r\n  }\r\n\r\n\r\n\r\n/************ Vendor *************/\r\n  function addVendor(address a ) public  onlyNgo {\r\n    vendors[a] = true;\r\n  }\r\n\r\n  function isVendor(address a ) public  view override  returns (bool)  {\r\n    return vendors[a];\r\n  }\r\n\r\n  function removeVendor(address a ) public  onlyNgo {\r\n    vendors[a] = false ;\r\n  }\r\n\r\n\r\n\r\n/************* Users *****************/\r\n   function addUser(address a) public  onlyNgo {\r\n    users[a] = true;\r\n  }\r\n\r\n  function isUser(address a ) public view  returns (bool) {\r\n    return users[a];\r\n  }\r\n\r\n  function removeUser (address a ) public   onlyNgo {\r\n    users[a] = false ;\r\n  }\r\n\r\n\r\n\r\n\r\n/***************  vaccinTeam **************/\r\n  function addVaccinTeam(address a) public  onlyNgo {\r\n    vaccinTeam[a] = true;\r\n  }\r\n\r\n  function isVaccinTeam(address a ) public view override returns (bool) {\r\n    return vaccinTeam[a];\r\n  }\r\n\r\n  function removeVaccinTeam (address a ) public   onlyNgo {\r\n    vaccinTeam[a] = false ;\r\n  }\r\n  \r\n}",
  "sourcePath": "D:\\Jawaher\\Wesharish\\nouveau\\Weshareish-Smart-Contract\\WesharishContracts\\contracts\\Administrators.sol",
  "compiler": {
    "name": "solc",
    "version": "0.6.8+commit.0bbfe453.Emscripten.clang"
  },
  "schemaVersion": "3.0.23",
  "updatedAt": "2021-03-25T08:20:09.441Z",
  "devdoc": {
    "methods": {}
  },
  "userdoc": {
    "methods": {
      "addNgo(address)": {
        "notice": "******* NGO ***********"
      },
      "addSuperAdmin(address)": {
        "notice": "******** Super Admin **********"
      },
      "addUser(address)": {
        "notice": "*********** Users ****************"
      },
      "addVaccinTeam(address)": {
        "notice": "*************  vaccinTeam *************"
      },
      "addVendor(address)": {
        "notice": "********** Vendor ************"
      }
    }
  }
}