{
  "contractName": "WesharishTokenVaccine",
  "abi": [
    {
      "inputs": [
        {
          "internalType": "address",
          "name": "admin",
          "type": "address"
        }
      ],
      "stateMutability": "nonpayable",
      "type": "constructor"
    },
    {
      "anonymous": false,
      "inputs": [
        {
          "indexed": true,
          "internalType": "address",
          "name": "owner",
          "type": "address"
        },
        {
          "indexed": true,
          "internalType": "address",
          "name": "spender",
          "type": "address"
        },
        {
          "indexed": false,
          "internalType": "uint256",
          "name": "value",
          "type": "uint256"
        }
      ],
      "name": "Approval",
      "type": "event"
    },
    {
      "anonymous": false,
      "inputs": [
        {
          "indexed": true,
          "internalType": "address",
          "name": "from",
          "type": "address"
        },
        {
          "indexed": true,
          "internalType": "address",
          "name": "to",
          "type": "address"
        },
        {
          "indexed": false,
          "internalType": "uint256",
          "name": "value",
          "type": "uint256"
        }
      ],
      "name": "Transfer",
      "type": "event"
    },
    {
      "anonymous": false,
      "inputs": [
        {
          "indexed": false,
          "internalType": "address",
          "name": "s",
          "type": "address"
        },
        {
          "indexed": false,
          "internalType": "uint256",
          "name": "v",
          "type": "uint256"
        }
      ],
      "name": "tokenVaccineAdded",
      "type": "event"
    },
    {
      "anonymous": false,
      "inputs": [
        {
          "indexed": false,
          "internalType": "address",
          "name": "s",
          "type": "address"
        },
        {
          "indexed": false,
          "internalType": "uint256",
          "name": "v",
          "type": "uint256"
        }
      ],
      "name": "tokenVaccineBurned",
      "type": "event"
    },
    {
      "inputs": [
        {
          "internalType": "address",
          "name": "owner",
          "type": "address"
        },
        {
          "internalType": "address",
          "name": "spender",
          "type": "address"
        }
      ],
      "name": "allowance",
      "outputs": [
        {
          "internalType": "uint256",
          "name": "",
          "type": "uint256"
        }
      ],
      "stateMutability": "view",
      "type": "function"
    },
    {
      "inputs": [
        {
          "internalType": "address",
          "name": "spender",
          "type": "address"
        },
        {
          "internalType": "uint256",
          "name": "amount",
          "type": "uint256"
        }
      ],
      "name": "approve",
      "outputs": [
        {
          "internalType": "bool",
          "name": "",
          "type": "bool"
        }
      ],
      "stateMutability": "nonpayable",
      "type": "function"
    },
    {
      "inputs": [
        {
          "internalType": "address",
          "name": "account",
          "type": "address"
        }
      ],
      "name": "balanceOf",
      "outputs": [
        {
          "internalType": "uint256",
          "name": "",
          "type": "uint256"
        }
      ],
      "stateMutability": "view",
      "type": "function"
    },
    {
      "inputs": [
        {
          "internalType": "uint256",
          "name": "amount",
          "type": "uint256"
        }
      ],
      "name": "burn",
      "outputs": [],
      "stateMutability": "nonpayable",
      "type": "function"
    },
    {
      "inputs": [
        {
          "internalType": "address",
          "name": "account",
          "type": "address"
        },
        {
          "internalType": "uint256",
          "name": "amount",
          "type": "uint256"
        }
      ],
      "name": "burnFrom",
      "outputs": [],
      "stateMutability": "nonpayable",
      "type": "function"
    },
    {
      "inputs": [],
      "name": "decimals",
      "outputs": [
        {
          "internalType": "uint8",
          "name": "",
          "type": "uint8"
        }
      ],
      "stateMutability": "view",
      "type": "function"
    },
    {
      "inputs": [
        {
          "internalType": "address",
          "name": "spender",
          "type": "address"
        },
        {
          "internalType": "uint256",
          "name": "subtractedValue",
          "type": "uint256"
        }
      ],
      "name": "decreaseAllowance",
      "outputs": [
        {
          "internalType": "bool",
          "name": "",
          "type": "bool"
        }
      ],
      "stateMutability": "nonpayable",
      "type": "function"
    },
    {
      "inputs": [
        {
          "internalType": "address",
          "name": "spender",
          "type": "address"
        },
        {
          "internalType": "uint256",
          "name": "addedValue",
          "type": "uint256"
        }
      ],
      "name": "increaseAllowance",
      "outputs": [
        {
          "internalType": "bool",
          "name": "",
          "type": "bool"
        }
      ],
      "stateMutability": "nonpayable",
      "type": "function"
    },
    {
      "inputs": [],
      "name": "name",
      "outputs": [
        {
          "internalType": "string",
          "name": "",
          "type": "string"
        }
      ],
      "stateMutability": "view",
      "type": "function"
    },
    {
      "inputs": [],
      "name": "symbol",
      "outputs": [
        {
          "internalType": "string",
          "name": "",
          "type": "string"
        }
      ],
      "stateMutability": "view",
      "type": "function"
    },
    {
      "inputs": [],
      "name": "totalSupply",
      "outputs": [
        {
          "internalType": "uint256",
          "name": "",
          "type": "uint256"
        }
      ],
      "stateMutability": "view",
      "type": "function"
    },
    {
      "inputs": [
        {
          "internalType": "address",
          "name": "recipient",
          "type": "address"
        },
        {
          "internalType": "uint256",
          "name": "amount",
          "type": "uint256"
        }
      ],
      "name": "transfer",
      "outputs": [
        {
          "internalType": "bool",
          "name": "",
          "type": "bool"
        }
      ],
      "stateMutability": "nonpayable",
      "type": "function"
    },
    {
      "inputs": [
        {
          "internalType": "address",
          "name": "sender",
          "type": "address"
        },
        {
          "internalType": "address",
          "name": "recipient",
          "type": "address"
        },
        {
          "internalType": "uint256",
          "name": "amount",
          "type": "uint256"
        }
      ],
      "name": "transferFrom",
      "outputs": [
        {
          "internalType": "bool",
          "name": "",
          "type": "bool"
        }
      ],
      "stateMutability": "nonpayable",
      "type": "function"
    },
    {
      "inputs": [
        {
          "internalType": "address",
          "name": "s",
          "type": "address"
        },
        {
          "internalType": "uint256",
          "name": "v",
          "type": "uint256"
        }
      ],
      "name": "mint",
      "outputs": [],
      "stateMutability": "nonpayable",
      "type": "function"
    },
    {
      "inputs": [
        {
          "internalType": "address",
          "name": "s",
          "type": "address"
        },
        {
          "internalType": "uint256",
          "name": "v",
          "type": "uint256"
        }
      ],
      "name": "burnToken",
      "outputs": [],
      "stateMutability": "nonpayable",
      "type": "function"
    }
  ],
  "bytecode": "0x60806040523480156200001157600080fd5b506040516200129538038062001295833981810160405260208110156200003757600080fd5b505160408051808201825260098152680aecae6d0c2e4d2e6d60bb1b6020828101918252835180850190945260038085526257534360e81b918501919091528251929392620000879290620000d7565b5080516200009d906004906020840190620000d7565b5050600580546001600160a01b0390931661010002610100600160a81b031960ff199094166012179390931692909217909155506200017c565b828054600181600116156101000203166002900490600052602060002090601f016020900481019282601f106200011a57805160ff19168380011785556200014a565b828001600101855582156200014a579182015b828111156200014a5782518255916020019190600101906200012d565b50620001589291506200015c565b5090565b6200017991905b8082111562000158576000815560010162000163565b90565b611109806200018c6000396000f3fe608060405234801561001057600080fd5b50600436106100f55760003560e01c806342966c6811610097578063a457c2d711610066578063a457c2d7146102f6578063a9059cbb14610322578063d1df306c1461034e578063dd62ed3e1461037a576100f5565b806342966c681461027f57806370a082311461029c57806379cc6790146102c257806395d89b41146102ee576100f5565b806323b872dd116100d357806323b872dd146101d1578063313ce56714610207578063395093511461022557806340c10f1914610251576100f5565b806306fdde03146100fa578063095ea7b31461017757806318160ddd146101b7575b600080fd5b6101026103a8565b6040805160208082528351818301528351919283929083019185019080838360005b8381101561013c578181015183820152602001610124565b50505050905090810190601f1680156101695780820380516001836020036101000a031916815260200191505b509250505060405180910390f35b6101a36004803603604081101561018d57600080fd5b506001600160a01b03813516906020013561043e565b604080519115158252519081900360200190f35b6101bf61045b565b60408051918252519081900360200190f35b6101a3600480360360608110156101e757600080fd5b506001600160a01b03813581169160208101359091169060400135610461565b61020f6104ee565b6040805160ff9092168252519081900360200190f35b6101a36004803603604081101561023b57600080fd5b506001600160a01b0381351690602001356104f7565b61027d6004803603604081101561026757600080fd5b506001600160a01b03813516906020013561054b565b005b61027d6004803603602081101561029557600080fd5b5035610669565b6101bf600480360360208110156102b257600080fd5b50356001600160a01b031661067d565b61027d600480360360408110156102d857600080fd5b506001600160a01b038135169060200135610698565b6101026106f8565b6101a36004803603604081101561030c57600080fd5b506001600160a01b038135169060200135610759565b6101a36004803603604081101561033857600080fd5b506001600160a01b0381351690602001356107c7565b61027d6004803603604081101561036457600080fd5b506001600160a01b0381351690602001356107db565b6101bf6004803603604081101561039057600080fd5b506001600160a01b0381358116916020013516610965565b60038054604080516020601f60026000196101006001881615020190951694909404938401819004810282018101909252828152606093909290918301828280156104345780601f1061040957610100808354040283529160200191610434565b820191906000526020600020905b81548152906001019060200180831161041757829003601f168201915b5050505050905090565b600061045261044b610990565b8484610994565b50600192915050565b60025490565b600061046e848484610a80565b6104e48461047a610990565b6104df85604051806060016040528060288152602001610fce602891396001600160a01b038a166000908152600160205260408120906104b8610990565b6001600160a01b03168152602081019190915260400160002054919063ffffffff610be716565b610994565b5060019392505050565b60055460ff1690565b6000610452610504610990565b846104df8560016000610515610990565b6001600160a01b03908116825260208083019390935260409182016000908120918c16815292529020549063ffffffff610c7e16565b6005546040805163582f0c0960e01b815233600482015290516101009092046001600160a01b03169163582f0c0991602480820192602092909190829003018186803b15801561059a57600080fd5b505afa1580156105ae573d6000803e3d6000fd5b505050506040513d60208110156105c457600080fd5b5051610617576040805162461bcd60e51b815260206004820152601d60248201527f6f6e6c792061646d696e2063616e20646f207468697320616374696f6e000000604482015290519081900360640190fd5b6106218282610cdf565b604080516001600160a01b03841681526020810183905281517fe4ad5443461b7f9f2a80b71e5184f9570deadbc7c2e505a8917c4f99c2d02a42929181900390910190a15050565b61067a610674610990565b82610ddb565b50565b6001600160a01b031660009081526020819052604090205490565b60006106d582604051806060016040528060248152602001610ff6602491396106c8866106c3610990565b610965565b919063ffffffff610be716565b90506106e9836106e3610990565b83610994565b6106f38383610ddb565b505050565b60048054604080516020601f60026000196101006001881615020190951694909404938401819004810282018101909252828152606093909290918301828280156104345780601f1061040957610100808354040283529160200191610434565b6000610452610766610990565b846104df856040518060600160405280602581526020016110af6025913960016000610790610990565b6001600160a01b03908116825260208083019390935260409182016000908120918d1681529252902054919063ffffffff610be716565b60006104526107d4610990565b8484610a80565b6005546040805163582f0c0960e01b815233600482015290516101009092046001600160a01b03169163582f0c0991602480820192602092909190829003018186803b15801561082a57600080fd5b505afa15801561083e573d6000803e3d6000fd5b505050506040513d602081101561085457600080fd5b5051806108d857506005546040805163953e8f9160e01b815233600482015290516101009092046001600160a01b03169163953e8f9191602480820192602092909190829003018186803b1580156108ab57600080fd5b505afa1580156108bf573d6000803e3d6000fd5b505050506040513d60208110156108d557600080fd5b50515b6109135760405162461bcd60e51b815260040180806020018281038252602b815260200180611084602b913960400191505060405180910390fd5b61091d8282610698565b604080516001600160a01b03841681526020810183905281517ff2a5892d270d45a5130c74302a08a009269ff9b63d363bf53078787c22a32ca6929181900390910190a15050565b6001600160a01b03918216600090815260016020908152604080832093909416825291909152205490565b3390565b6001600160a01b0383166109d95760405162461bcd60e51b81526004018080602001828103825260248152602001806110606024913960400191505060405180910390fd5b6001600160a01b038216610a1e5760405162461bcd60e51b8152600401808060200182810382526022815260200180610f866022913960400191505060405180910390fd5b6001600160a01b03808416600081815260016020908152604080832094871680845294825291829020859055815185815291517f8c5be1e5ebec7d5bd14f71427d1e84f3dd0314c0f7b2291e5b200ac8c7c3b9259281900390910190a3505050565b6001600160a01b038316610ac55760405162461bcd60e51b815260040180806020018281038252602581526020018061103b6025913960400191505060405180910390fd5b6001600160a01b038216610b0a5760405162461bcd60e51b8152600401808060200182810382526023815260200180610f416023913960400191505060405180910390fd5b610b158383836106f3565b610b5881604051806060016040528060268152602001610fa8602691396001600160a01b038616600090815260208190526040902054919063ffffffff610be716565b6001600160a01b038085166000908152602081905260408082209390935590841681522054610b8d908263ffffffff610c7e16565b6001600160a01b038084166000818152602081815260409182902094909455805185815290519193928716927fddf252ad1be2c89b69c2b068fc378daa952ba7f163c4a11628f55a4df523b3ef92918290030190a3505050565b60008184841115610c765760405162461bcd60e51b81526004018080602001828103825283818151815260200191508051906020019080838360005b83811015610c3b578181015183820152602001610c23565b50505050905090810190601f168015610c685780820380516001836020036101000a031916815260200191505b509250505060405180910390fd5b505050900390565b600082820183811015610cd8576040805162461bcd60e51b815260206004820152601b60248201527f536166654d6174683a206164646974696f6e206f766572666c6f770000000000604482015290519081900360640190fd5b9392505050565b6001600160a01b038216610d3a576040805162461bcd60e51b815260206004820152601f60248201527f45524332303a206d696e7420746f20746865207a65726f206164647265737300604482015290519081900360640190fd5b610d46600083836106f3565b600254610d59908263ffffffff610c7e16565b6002556001600160a01b038216600090815260208190526040902054610d85908263ffffffff610c7e16565b6001600160a01b0383166000818152602081815260408083209490945583518581529351929391927fddf252ad1be2c89b69c2b068fc378daa952ba7f163c4a11628f55a4df523b3ef9281900390910190a35050565b6001600160a01b038216610e205760405162461bcd60e51b815260040180806020018281038252602181526020018061101a6021913960400191505060405180910390fd5b610e2c826000836106f3565b610e6f81604051806060016040528060228152602001610f64602291396001600160a01b038516600090815260208190526040902054919063ffffffff610be716565b6001600160a01b038316600090815260208190526040902055600254610e9b908263ffffffff610ee316565b6002556040805182815290516000916001600160a01b038516917fddf252ad1be2c89b69c2b068fc378daa952ba7f163c4a11628f55a4df523b3ef9181900360200190a35050565b600082821115610f3a576040805162461bcd60e51b815260206004820152601e60248201527f536166654d6174683a207375627472616374696f6e206f766572666c6f770000604482015290519081900360640190fd5b5090039056fe45524332303a207472616e7366657220746f20746865207a65726f206164647265737345524332303a206275726e20616d6f756e7420657863656564732062616c616e636545524332303a20617070726f766520746f20746865207a65726f206164647265737345524332303a207472616e7366657220616d6f756e7420657863656564732062616c616e636545524332303a207472616e7366657220616d6f756e74206578636565647320616c6c6f77616e636545524332303a206275726e20616d6f756e74206578636565647320616c6c6f77616e636545524332303a206275726e2066726f6d20746865207a65726f206164647265737345524332303a207472616e736665722066726f6d20746865207a65726f206164647265737345524332303a20617070726f76652066726f6d20746865207a65726f2061646472657373796f7520646f206e6f7420686176652074686520726967687420746f20646f207468697320616374696f6e45524332303a2064656372656173656420616c6c6f77616e63652062656c6f77207a65726fa26469706673582212200662c3adce433462718bac507fcfe28634ff997cfcf65f20194b3d25b9ec3c6164736f6c63430006080033",
  "source": "pragma solidity >=0.4.22 <0.9.0;\r\n\r\nimport '@openzeppelin/contracts/token/ERC20/ERC20.sol' ;\r\nimport '@openzeppelin/contracts/token/ERC20/ERC20Burnable.sol' ;\r\n\r\nimport \"./IAdministrator.sol\";\r\n\r\ncontract WesharishTokenVaccine is ERC20 , ERC20Burnable {\r\n\r\n    address AdministratorAddress;\r\n\r\n\r\n  event tokenVaccineAdded(address s , uint v);\r\n  event tokenVaccineBurned(address s , uint v);\r\n\r\n\r\n    constructor (address admin) ERC20(\"Wesharish\",\"WSC\") public {\r\n         AdministratorAddress = admin ;\r\n     } \r\n\r\n\r\n\r\n     modifier onlyNgo () {\r\n      require(IAdministrator(AdministratorAddress).isNgo(msg.sender),  \"only admin can do this action\");\r\n      _;\r\n    }\r\n\r\n    \r\n     modifier onlyNgoOrVaccinTeam(){\r\n      require((IAdministrator(AdministratorAddress).isNgo(msg.sender)||(IAdministrator(AdministratorAddress).isVaccinTeam(msg.sender)))\r\n      ,\"you do not have the right to do this action\");\r\n      _;\r\n    }\r\n    \r\n\r\n\r\n\r\n\r\n    function mint(address s , uint v) public onlyNgo {\r\n    _mint(s , v);\r\n    emit tokenVaccineAdded(s , v);\r\n    }\r\n\r\n\r\n    function burnToken( address s , uint v ) public onlyNgoOrVaccinTeam {\r\n     burnFrom(s , v) ;\r\n     emit tokenVaccineBurned(s , v);\r\n    }\r\n\r\n}",
  "sourcePath": "D:\\Jawaher\\Wesharish\\nouveau\\Weshareish-Smart-Contract\\WesharishContracts\\contracts\\WesharishTokenVaccine.sol",
  "compiler": {
    "name": "solc",
    "version": "0.6.8+commit.0bbfe453.Emscripten.clang"
  },
  "schemaVersion": "3.0.23",
  "updatedAt": "2021-03-25T08:20:09.470Z",
  "devdoc": {
    "methods": {
      "allowance(address,address)": {
        "details": "See {IERC20-allowance}."
      },
      "approve(address,uint256)": {
        "details": "See {IERC20-approve}.     * Requirements:     * - `spender` cannot be the zero address."
      },
      "balanceOf(address)": {
        "details": "See {IERC20-balanceOf}."
      },
      "burn(uint256)": {
        "details": "Destroys `amount` tokens from the caller.     * See {ERC20-_burn}."
      },
      "burnFrom(address,uint256)": {
        "details": "Destroys `amount` tokens from `account`, deducting from the caller's allowance.     * See {ERC20-_burn} and {ERC20-allowance}.     * Requirements:     * - the caller must have allowance for ``accounts``'s tokens of at least `amount`."
      },
      "decimals()": {
        "details": "Returns the number of decimals used to get its user representation. For example, if `decimals` equals `2`, a balance of `505` tokens should be displayed to a user as `5,05` (`505 / 10 ** 2`).     * Tokens usually opt for a value of 18, imitating the relationship between Ether and Wei. This is the value {ERC20} uses, unless {_setupDecimals} is called.     * NOTE: This information is only used for _display_ purposes: it in no way affects any of the arithmetic of the contract, including {IERC20-balanceOf} and {IERC20-transfer}."
      },
      "decreaseAllowance(address,uint256)": {
        "details": "Atomically decreases the allowance granted to `spender` by the caller.     * This is an alternative to {approve} that can be used as a mitigation for problems described in {IERC20-approve}.     * Emits an {Approval} event indicating the updated allowance.     * Requirements:     * - `spender` cannot be the zero address. - `spender` must have allowance for the caller of at least `subtractedValue`."
      },
      "increaseAllowance(address,uint256)": {
        "details": "Atomically increases the allowance granted to `spender` by the caller.     * This is an alternative to {approve} that can be used as a mitigation for problems described in {IERC20-approve}.     * Emits an {Approval} event indicating the updated allowance.     * Requirements:     * - `spender` cannot be the zero address."
      },
      "name()": {
        "details": "Returns the name of the token."
      },
      "symbol()": {
        "details": "Returns the symbol of the token, usually a shorter version of the name."
      },
      "totalSupply()": {
        "details": "See {IERC20-totalSupply}."
      },
      "transfer(address,uint256)": {
        "details": "See {IERC20-transfer}.     * Requirements:     * - `recipient` cannot be the zero address. - the caller must have a balance of at least `amount`."
      },
      "transferFrom(address,address,uint256)": {
        "details": "See {IERC20-transferFrom}.     * Emits an {Approval} event indicating the updated allowance. This is not required by the EIP. See the note at the beginning of {ERC20}.     * Requirements:     * - `sender` and `recipient` cannot be the zero address. - `sender` must have a balance of at least `amount`. - the caller must have allowance for ``sender``'s tokens of at least `amount`."
      }
    }
  },
  "userdoc": {
    "methods": {}
  }
}