{
  "contractName": "Administrators",
  "abi": [
    {
      "inputs": [],
      "payable": false,
      "stateMutability": "nonpayable",
      "type": "constructor"
    },
    {
      "constant": false,
      "inputs": [
        {
          "internalType": "address",
          "name": "a",
          "type": "address"
        }
      ],
      "name": "addDoctor",
      "outputs": [],
      "payable": false,
      "stateMutability": "nonpayable",
      "type": "function"
    },
    {
      "constant": true,
      "inputs": [
        {
          "internalType": "address",
          "name": "a",
          "type": "address"
        }
      ],
      "name": "isDoctor",
      "outputs": [
        {
          "internalType": "bool",
          "name": "",
          "type": "bool"
        }
      ],
      "payable": false,
      "stateMutability": "view",
      "type": "function"
    },
    {
      "constant": false,
      "inputs": [
        {
          "internalType": "address",
          "name": "a",
          "type": "address"
        }
      ],
      "name": "removeDoctor",
      "outputs": [],
      "payable": false,
      "stateMutability": "nonpayable",
      "type": "function"
    },
    {
      "constant": false,
      "inputs": [
        {
          "internalType": "address",
          "name": "a",
          "type": "address"
        }
      ],
      "name": "addAdmin",
      "outputs": [],
      "payable": false,
      "stateMutability": "nonpayable",
      "type": "function"
    },
    {
      "constant": true,
      "inputs": [
        {
          "internalType": "address",
          "name": "a",
          "type": "address"
        }
      ],
      "name": "isAdmin",
      "outputs": [
        {
          "internalType": "bool",
          "name": "",
          "type": "bool"
        }
      ],
      "payable": false,
      "stateMutability": "view",
      "type": "function"
    },
    {
      "constant": false,
      "inputs": [
        {
          "internalType": "address",
          "name": "a",
          "type": "address"
        }
      ],
      "name": "removeAdmin",
      "outputs": [],
      "payable": false,
      "stateMutability": "nonpayable",
      "type": "function"
    },
    {
      "constant": false,
      "inputs": [
        {
          "internalType": "address",
          "name": "a",
          "type": "address"
        }
      ],
      "name": "addPharmacist",
      "outputs": [],
      "payable": false,
      "stateMutability": "nonpayable",
      "type": "function"
    },
    {
      "constant": true,
      "inputs": [
        {
          "internalType": "address",
          "name": "a",
          "type": "address"
        }
      ],
      "name": "isPharmacist",
      "outputs": [
        {
          "internalType": "bool",
          "name": "",
          "type": "bool"
        }
      ],
      "payable": false,
      "stateMutability": "view",
      "type": "function"
    },
    {
      "constant": false,
      "inputs": [
        {
          "internalType": "address",
          "name": "a",
          "type": "address"
        }
      ],
      "name": "removePharmacist",
      "outputs": [],
      "payable": false,
      "stateMutability": "nonpayable",
      "type": "function"
    }
  ],
  "bytecode": "0x608060405234801561001057600080fd5b50336000908152600160208190526040909120805460ff191690911790556105358061003d6000396000f3fe608060405234801561001057600080fd5b50600436106100935760003560e01c806382946ee21161006657806382946ee21461014657806398fc90e91461016c578063996440c614610192578063c09e2693146101b8578063d9c54dcd146101de57610093565b80631785f53c1461009857806324d7806c146100c05780634780468f146100fa5780637048027514610120575b600080fd5b6100be600480360360208110156100ae57600080fd5b50356001600160a01b0316610204565b005b6100e6600480360360208110156100d657600080fd5b50356001600160a01b031661026d565b604080519115158252519081900360200190f35b6100be6004803603602081101561011057600080fd5b50356001600160a01b031661028b565b6100be6004803603602081101561013657600080fd5b50356001600160a01b03166102f7565b6100e66004803603602081101561015c57600080fd5b50356001600160a01b0316610366565b6100be6004803603602081101561018257600080fd5b50356001600160a01b0316610384565b6100e6600480360360208110156101a857600080fd5b50356001600160a01b03166103ed565b6100be600480360360208110156101ce57600080fd5b50356001600160a01b031661040b565b6100be600480360360208110156101f457600080fd5b50356001600160a01b0316610477565b61020d3361026d565b61024c576040805162461bcd60e51b815260206004820152601d60248201526000805160206104e1833981519152604482015290519081900360640190fd5b6001600160a01b03166000908152600160205260409020805460ff19169055565b6001600160a01b031660009081526001602052604090205460ff1690565b6102943361026d565b6102d3576040805162461bcd60e51b815260206004820152601d60248201526000805160206104e1833981519152604482015290519081900360640190fd5b6001600160a01b03166000908152602081905260409020805460ff19166001179055565b6103003361026d565b61033f576040805162461bcd60e51b815260206004820152601d60248201526000805160206104e1833981519152604482015290519081900360640190fd5b6001600160a01b03166000908152600160208190526040909120805460ff19169091179055565b6001600160a01b031660009081526002602052604090205460ff1690565b61038d3361026d565b6103cc576040805162461bcd60e51b815260206004820152601d60248201526000805160206104e1833981519152604482015290519081900360640190fd5b6001600160a01b03166000908152602081905260409020805460ff19169055565b6001600160a01b031660009081526020819052604090205460ff1690565b6104143361026d565b610453576040805162461bcd60e51b815260206004820152601d60248201526000805160206104e1833981519152604482015290519081900360640190fd5b6001600160a01b03166000908152600260205260409020805460ff19166001179055565b6104803361026d565b6104bf576040805162461bcd60e51b815260206004820152601d60248201526000805160206104e1833981519152604482015290519081900360640190fd5b6001600160a01b03166000908152600260205260409020805460ff1916905556fe6f6e6c792061646d696e2063616e20646f207468697320616374696f6e000000a265627a7a723158208625875493aacb640d741de09da65a7384407db4ee47dd000e6fb4c03a1e952964736f6c63430005100032",
  "source": "pragma solidity >= 0.5.0 < 0.7.0;\r\n\r\n\r\nimport \"./IAdministrator.sol\";\r\n\r\ncontract Administrators is IAdministrator  {\r\n\r\n\r\n  mapping( address => bool) doctors;\r\n  mapping( address => bool) admins;\r\n  mapping( address => bool) pharmacists;\r\n\r\n\r\n  \r\n  constructor() public {\r\n   admins [msg.sender]=true;\r\n  }\r\n\r\n  modifier onlyAdmin() {\r\n      require(isAdmin(msg.sender), \"only admin can do this action\");\r\n      _;\r\n  }\r\n\r\n  function addDoctor(address a ) public onlyAdmin{\r\n    doctors[a] = true;\r\n  }\r\n\r\n  function isDoctor(address a ) public view returns (bool)  {\r\n    return doctors[a];\r\n  }\r\n\r\n  function removeDoctor (address a ) public onlyAdmin{\r\n    doctors[a] = false ;\r\n  }\r\n\r\n   function addAdmin(address a) public onlyAdmin {\r\n    admins[a] = true;\r\n  }\r\n\r\n  function isAdmin(address a ) public view returns (bool) {\r\n    return admins[a];\r\n  }\r\n\r\n  function removeAdmin (address a ) public onlyAdmin{\r\n    admins[a] = false ;\r\n  }\r\n\r\n    function addPharmacist (address a ) public onlyAdmin {\r\n    pharmacists[a] = true;\r\n  }\r\n\r\n  function isPharmacist (address a ) public view returns (bool) {\r\n    return pharmacists[a];\r\n  }\r\n\r\n  function removePharmacist (address a ) public onlyAdmin {\r\n    pharmacists[a] = false ;\r\n  }\r\n\r\n\r\n  \r\n}",
  "sourcePath": "D:\\Jawaher\\Med.tn\\med-smartContract-avax\\contracts\\Administrators.sol",
  "compiler": {
    "name": "solc",
    "version": "0.5.16+commit.9c3226ce.Emscripten.clang"
  },
  "schemaVersion": "3.0.23",
  "updatedAt": "2021-05-25T13:03:17.048Z",
  "devdoc": {
    "methods": {}
  },
  "userdoc": {
    "methods": {}
  }
}