{
  "contractName": "Token",
  "abi": [
    {
      "constant": true,
      "inputs": [],
      "name": "name",
      "outputs": [
        {
          "name": "",
          "type": "string"
        }
      ],
      "payable": false,
      "stateMutability": "view",
      "type": "function"
    },
    {
      "constant": false,
      "inputs": [
        {
          "name": "_spender",
          "type": "address"
        },
        {
          "name": "_value",
          "type": "uint256"
        }
      ],
      "name": "approve",
      "outputs": [
        {
          "name": "success",
          "type": "bool"
        }
      ],
      "payable": false,
      "stateMutability": "nonpayable",
      "type": "function"
    },
    {
      "constant": true,
      "inputs": [],
      "name": "totalSupply",
      "outputs": [
        {
          "name": "",
          "type": "uint256"
        }
      ],
      "payable": false,
      "stateMutability": "view",
      "type": "function"
    },
    {
      "constant": false,
      "inputs": [
        {
          "name": "_from",
          "type": "address"
        },
        {
          "name": "_to",
          "type": "address"
        },
        {
          "name": "_value",
          "type": "uint256"
        }
      ],
      "name": "transferFrom",
      "outputs": [
        {
          "name": "success",
          "type": "bool"
        }
      ],
      "payable": false,
      "stateMutability": "nonpayable",
      "type": "function"
    },
    {
      "constant": true,
      "inputs": [],
      "name": "decimals",
      "outputs": [
        {
          "name": "",
          "type": "uint8"
        }
      ],
      "payable": false,
      "stateMutability": "view",
      "type": "function"
    },
    {
      "constant": true,
      "inputs": [],
      "name": "version",
      "outputs": [
        {
          "name": "",
          "type": "string"
        }
      ],
      "payable": false,
      "stateMutability": "view",
      "type": "function"
    },
    {
      "constant": true,
      "inputs": [
        {
          "name": "_owner",
          "type": "address"
        }
      ],
      "name": "balanceOf",
      "outputs": [
        {
          "name": "balance",
          "type": "uint256"
        }
      ],
      "payable": false,
      "stateMutability": "view",
      "type": "function"
    },
    {
      "constant": true,
      "inputs": [],
      "name": "symbol",
      "outputs": [
        {
          "name": "",
          "type": "string"
        }
      ],
      "payable": false,
      "stateMutability": "view",
      "type": "function"
    },
    {
      "constant": true,
      "inputs": [],
      "name": "allowTransfer",
      "outputs": [
        {
          "name": "",
          "type": "bool"
        }
      ],
      "payable": false,
      "stateMutability": "view",
      "type": "function"
    },
    {
      "constant": false,
      "inputs": [
        {
          "name": "_to",
          "type": "address"
        },
        {
          "name": "_value",
          "type": "uint256"
        }
      ],
      "name": "transfer",
      "outputs": [
        {
          "name": "success",
          "type": "bool"
        }
      ],
      "payable": false,
      "stateMutability": "nonpayable",
      "type": "function"
    },
    {
      "constant": true,
      "inputs": [
        {
          "name": "_owner",
          "type": "address"
        },
        {
          "name": "_spender",
          "type": "address"
        }
      ],
      "name": "allowance",
      "outputs": [
        {
          "name": "remaining",
          "type": "uint256"
        }
      ],
      "payable": false,
      "stateMutability": "view",
      "type": "function"
    },
    {
      "constant": true,
      "inputs": [],
      "name": "mintableAddress",
      "outputs": [
        {
          "name": "",
          "type": "address"
        }
      ],
      "payable": false,
      "stateMutability": "view",
      "type": "function"
    },
    {
      "inputs": [
        {
          "name": "sale_address",
          "type": "address"
        }
      ],
      "payable": false,
      "stateMutability": "nonpayable",
      "type": "constructor"
    },
    {
      "anonymous": false,
      "inputs": [
        {
          "indexed": true,
          "name": "_from",
          "type": "address"
        },
        {
          "indexed": true,
          "name": "_to",
          "type": "address"
        },
        {
          "indexed": false,
          "name": "_value",
          "type": "uint256"
        }
      ],
      "name": "Transfer",
      "type": "event"
    },
    {
      "anonymous": false,
      "inputs": [
        {
          "indexed": true,
          "name": "_owner",
          "type": "address"
        },
        {
          "indexed": true,
          "name": "_spender",
          "type": "address"
        },
        {
          "indexed": false,
          "name": "_value",
          "type": "uint256"
        }
      ],
      "name": "Approval",
      "type": "event"
    },
    {
      "constant": false,
      "inputs": [
        {
          "name": "allowed",
          "type": "bool"
        }
      ],
      "name": "changeTransfer",
      "outputs": [],
      "payable": false,
      "stateMutability": "nonpayable",
      "type": "function"
    },
    {
      "constant": false,
      "inputs": [
        {
          "name": "to",
          "type": "address"
        },
        {
          "name": "amount",
          "type": "uint256"
        }
      ],
      "name": "mintToken",
      "outputs": [
        {
          "name": "success",
          "type": "bool"
        }
      ],
      "payable": false,
      "stateMutability": "nonpayable",
      "type": "function"
    },
    {
      "constant": false,
      "inputs": [
        {
          "name": "_spender",
          "type": "address"
        },
        {
          "name": "_value",
          "type": "uint256"
        },
        {
          "name": "_extraData",
          "type": "bytes"
        }
      ],
      "name": "approveAndCall",
      "outputs": [
        {
          "name": "success",
          "type": "bool"
        }
      ],
      "payable": false,
      "stateMutability": "nonpayable",
      "type": "function"
    }
  ],
  "bytecode": "0x606060405260408051908101604052601081527f42415349432045524332302053414c4500000000000000000000000000000000602082015260049080516200004d929160200190620001fc565b506005805460ff1916601217905560408051908101604052600581527f424153494300000000000000000000000000000000000000000000000000000060208201526006908051620000a4929160200190620001fc565b5060408051908101604052600981527f424153494320302e31000000000000000000000000000000000000000000000060208201526007908051620000ee929160200190620001fc565b503415620000fb57600080fd5b60405160208062000d6983398101604052808051600160a060020a0333166000908152600260208190526040822082905590805560048054929450620001569350918291600019610100600184161502019091160462000281565b506005805460ff19811660ff909116179055600680546200018d919081906002600019600183161561010002019091160462000281565b5060088054600160a060020a031916600160a060020a0383161790556001805460ff191681179055620001cd640100000000620001d48102620009ea1704565b506200031b565b600160a060020a03301660009081526002602052604081206601c6bf52634000908190559055565b828054600181600116156101000203166002900490600052602060002090601f016020900481019282601f106200023f57805160ff19168380011785556200026f565b828001600101855582156200026f579182015b828111156200026f57825182559160200191906001019062000252565b506200027d929150620002fb565b5090565b828054600181600116156101000203166002900490600052602060002090601f016020900481019282601f10620002bc57805485556200026f565b828001600101855582156200026f57600052602060002091601f016020900482015b828111156200026f578254825591600101919060010190620002de565b6200031891905b808211156200027d576000815560010162000302565b90565b610a3e806200032b6000396000f3006060604052600436106100c15763ffffffff60e060020a60003504166306fdde0381146100c657806309010e5314610150578063095ea7b31461016a57806318160ddd146101a057806323b872dd146101c5578063313ce567146101ed57806354fd4d501461021657806370a082311461022957806379c650681461024857806395d89b411461026a5780639b08a22f1461027d578063a9059cbb14610290578063cae9ca51146102b2578063dd62ed3e14610317578063df4c21641461033c575b600080fd5b34156100d157600080fd5b6100d961036b565b60405160208082528190810183818151815260200191508051906020019080838360005b838110156101155780820151838201526020016100fd565b50505050905090810190601f1680156101425780820380516001836020036101000a031916815260200191505b509250505060405180910390f35b341561015b57600080fd5b6101686004351515610409565b005b341561017557600080fd5b61018c600160a060020a0360043516602435610437565b604051901515815260200160405180910390f35b34156101ab57600080fd5b6101b36104b4565b60405190815260200160405180910390f35b34156101d057600080fd5b61018c600160a060020a03600435811690602435166044356104ba565b34156101f857600080fd5b6102006105b7565b60405160ff909116815260200160405180910390f35b341561022157600080fd5b6100d96105c0565b341561023457600080fd5b6101b3600160a060020a036004351661062b565b341561025357600080fd5b61018c600160a060020a0360043516602435610646565b341561027557600080fd5b6100d96106f8565b341561028857600080fd5b61018c610763565b341561029b57600080fd5b61018c600160a060020a036004351660243561076c565b34156102bd57600080fd5b61018c60048035600160a060020a03169060248035919060649060443590810190830135806020601f8201819004810201604051908101604052818152929190602084018383808284375094965061081495505050505050565b341561032257600080fd5b6101b3600160a060020a03600435811690602435166109b0565b341561034757600080fd5b61034f6109db565b604051600160a060020a03909116815260200160405180910390f35b60048054600181600116156101000203166002900480601f0160208091040260200160405190810160405280929190818152602001828054600181600116156101000203166002900480156104015780601f106103d657610100808354040283529160200191610401565b820191906000526020600020905b8154815290600101906020018083116103e457829003601f168201915b505050505081565b60085433600160a060020a0390811691161461042457600080fd5b6001805460ff1916911515919091179055565b60015460009060ff16151561044b57600080fd5b600160a060020a03338116600081815260036020908152604080832094881680845294909152908190208590557f8c5be1e5ebec7d5bd14f71427d1e84f3dd0314c0f7b2291e5b200ac8c7c3b9259085905190815260200160405180910390a350600192915050565b60005481565b60015460009060ff1615156104ce57600080fd5b600160a060020a03841660009081526002602052604090205482901080159061051e5750600160a060020a0380851660009081526003602090815260408083203390941683529290522054829010155b151561052957600080fd5b600160a060020a03808416600081815260026020908152604080832080548801905588851680845281842080548990039055600383528184203390961684529490915290819020805486900390559091907fddf252ad1be2c89b69c2b068fc378daa952ba7f163c4a11628f55a4df523b3ef9085905190815260200160405180910390a35060019392505050565b60055460ff1681565b60078054600181600116156101000203166002900480601f0160208091040260200160405190810160405280929190818152602001828054600181600116156101000203166002900480156104015780601f106103d657610100808354040283529160200191610401565b600160a060020a031660009081526002602052604090205490565b60085460009033600160a060020a0390811691161461066457600080fd5b600160a060020a0330166000908152600260205260409020548290101561068a57600080fd5b600160a060020a033081166000818152600260205260408082208054879003905592861680825290839020805486019055917fddf252ad1be2c89b69c2b068fc378daa952ba7f163c4a11628f55a4df523b3ef9085905190815260200160405180910390a350600192915050565b60068054600181600116156101000203166002900480601f0160208091040260200160405190810160405280929190818152602001828054600181600116156101000203166002900480156104015780601f106103d657610100808354040283529160200191610401565b60015460ff1681565b60015460009060ff16151561078057600080fd5b600160a060020a033316600090815260026020526040902054829010156107a657600080fd5b600160a060020a033381166000818152600260205260408082208054879003905592861680825290839020805486019055917fddf252ad1be2c89b69c2b068fc378daa952ba7f163c4a11628f55a4df523b3ef9085905190815260200160405180910390a350600192915050565b600160a060020a03338116600081815260036020908152604080832094881680845294909152808220869055909291907f8c5be1e5ebec7d5bd14f71427d1e84f3dd0314c0f7b2291e5b200ac8c7c3b9259086905190815260200160405180910390a383600160a060020a03166040517f72656365697665417070726f76616c28616464726573732c75696e743235362c81527f616464726573732c6279746573290000000000000000000000000000000000006020820152602e01604051809103902060e060020a9004338530866040518563ffffffff1660e060020a0281526004018085600160a060020a0316600160a060020a0316815260200184815260200183600160a060020a0316600160a060020a03168152602001828051906020019080838360005b8381101561095557808201518382015260200161093d565b50505050905090810190601f1680156109825780820380516001836020036101000a031916815260200191505b509450505050506000604051808303816000875af19250505015156109a657600080fd5b5060019392505050565b600160a060020a03918216600090815260036020908152604080832093909416825291909152205490565b600854600160a060020a031681565b600160a060020a03301660009081526002602052604081206601c6bf526340009081905590555600a165627a7a7230582035d143592acae716135a4d3660446183e90eaa796f8a87efb3d371709e5e1fa10029",
  "source": "pragma solidity ^0.4.21;\r\n\r\n\r\n/*\r\n\r\nBASIC ERC20 Crowdsale ICO ERC20 Token\r\n\r\nCreate this Token contract AFTER you already have the Sale contract created.\r\n\r\n   Token(address sale_address)   // creates token and links the Sale contract\r\n\r\n@author Hunter Long\r\n@repo https://github.com/hunterlong/ethereum-ico-contract\r\n\r\n*/\r\n\r\n\r\ncontract BasicToken {\r\n    uint256 public totalSupply;\r\n    bool public allowTransfer;\r\n\r\n    function balanceOf(address _owner) constant returns (uint256 balance);\r\n    function transfer(address _to, uint256 _value) returns (bool success);\r\n    function transferFrom(address _from, address _to, uint256 _value) returns (bool success);\r\n    function approve(address _spender, uint256 _value) returns (bool success);\r\n    function allowance(address _owner, address _spender) constant returns (uint256 remaining);\r\n\r\n    event Transfer(address indexed _from, address indexed _to, uint256 _value);\r\n    event Approval(address indexed _owner, address indexed _spender, uint256 _value);\r\n}\r\n\r\ncontract StandardToken is BasicToken {\r\n\r\n    function transfer(address _to, uint256 _value) returns (bool success) {\r\n        require(allowTransfer);\r\n        require(balances[msg.sender] >= _value);\r\n        balances[msg.sender] -= _value;\r\n        balances[_to] += _value;\r\n        Transfer(msg.sender, _to, _value);\r\n        return true;\r\n    }\r\n\r\n    function transferFrom(address _from, address _to, uint256 _value) returns (bool success) {\r\n        require(allowTransfer);\r\n        require(balances[_from] >= _value && allowed[_from][msg.sender] >= _value);\r\n        balances[_to] += _value;\r\n        balances[_from] -= _value;\r\n        allowed[_from][msg.sender] -= _value;\r\n        Transfer(_from, _to, _value);\r\n        return true;\r\n    }\r\n\r\n    function balanceOf(address _owner) constant returns (uint256 balance) {\r\n        return balances[_owner];\r\n    }\r\n\r\n    function approve(address _spender, uint256 _value) returns (bool success) {\r\n        require(allowTransfer);\r\n        allowed[msg.sender][_spender] = _value;\r\n        Approval(msg.sender, _spender, _value);\r\n        return true;\r\n    }\r\n\r\n    function allowance(address _owner, address _spender) constant returns (uint256 remaining) {\r\n      return allowed[_owner][_spender];\r\n    }\r\n\r\n    mapping (address => uint256) balances;\r\n    mapping (address => mapping (address => uint256)) allowed;\r\n}\r\n\r\n\r\ncontract Token is StandardToken {\r\n\r\n    string public name = \"BASIC ERC20 SALE\";\r\n    uint8 public decimals = 18;\r\n    string public symbol = \"BASIC\";\r\n    string public version = 'BASIC 0.1';\r\n    address public mintableAddress;\r\n\r\n    function Token(address sale_address) {\r\n        balances[msg.sender] = 0;\r\n        totalSupply = 0;\r\n        name = name;\r\n        decimals = decimals;\r\n        symbol = symbol;\r\n        mintableAddress = sale_address;\r\n        allowTransfer = true;\r\n        createTokens();\r\n    }\r\n\r\n    // creates all tokens 5 million\r\n    // this address will hold all tokens\r\n    // all community contrubutions coins will be taken from this address\r\n    function createTokens() internal {\r\n        uint256 total = 500000000000000;\r\n        balances[this] = total;\r\n        totalSupply = total;\r\n    }\r\n\r\n    function changeTransfer(bool allowed) external {\r\n        require(msg.sender == mintableAddress);\r\n        allowTransfer = allowed;\r\n    }\r\n\r\n    function mintToken(address to, uint256 amount) external returns (bool success) {\r\n        require(msg.sender == mintableAddress);\r\n        require(balances[this] >= amount);\r\n        balances[this] -= amount;\r\n        balances[to] += amount;\r\n        Transfer(this, to, amount);\r\n        return true;\r\n    }\r\n\r\n    function approveAndCall(address _spender, uint256 _value, bytes _extraData) returns (bool success) {\r\n        allowed[msg.sender][_spender] = _value;\r\n        Approval(msg.sender, _spender, _value);\r\n\r\n        require(_spender.call(bytes4(bytes32(sha3(\"receiveApproval(address,uint256,address,bytes)\"))), msg.sender, _value, this, _extraData));\r\n        return true;\r\n    }\r\n}",
  "sourcePath": "D:\\Jawaher\\zilliqa\\ethereum-ico-contract\\contracts\\Token.sol",
  "compiler": {
    "name": "solc",
    "version": "0.4.21+commit.dfe3193c.Emscripten.clang"
  },
  "schemaVersion": "3.0.23",
  "updatedAt": "2021-05-21T17:45:01.068Z",
  "networkType": "ethereum",
  "devdoc": {
    "methods": {}
  },
  "userdoc": {
    "methods": {}
  }
}