{
  "contractName": "exemple",
  "abi": [
    {
      "inputs": [],
      "payable": false,
      "stateMutability": "nonpayable",
      "type": "constructor"
    },
    {
      "constant": false,
      "inputs": [
        {
          "internalType": "string",
          "name": "a",
          "type": "string"
        },
        {
          "internalType": "uint256",
          "name": "b",
          "type": "uint256"
        }
      ],
      "name": "justeForTest",
      "outputs": [
        {
          "internalType": "string",
          "name": "",
          "type": "string"
        }
      ],
      "payable": false,
      "stateMutability": "nonpayable",
      "type": "function"
    },
    {
      "constant": false,
      "inputs": [],
      "name": "createPorfolio",
      "outputs": [],
      "payable": false,
      "stateMutability": "nonpayable",
      "type": "function"
    }
  ],
  "bytecode": "0x608060405234801561001057600080fd5b506101c0806100206000396000f3fe608060405234801561001057600080fd5b50600436106100365760003560e01c80635ee2755f1461003b578063f4bb7b3f14610158575b600080fd5b6100e36004803603604081101561005157600080fd5b81019060208101813564010000000081111561006c57600080fd5b82018360208201111561007e57600080fd5b803590602001918460018302840111640100000000831117156100a057600080fd5b91908080601f0160208091040260200160405190810160405280939291908181526020018383808284376000920191909152509295505091359250610162915050565b6040805160208082528351818301528351919283929083019185019080838360005b8381101561011d578181015183820152602001610105565b50505050905090810190601f16801561014a5780820380516001836020036101000a031916815260200191505b509250505060405180910390f35b610160610189565b005b505060408051808201909152600b81526a12195b1b1bc81ddbdc9b1960aa1b602082015290565b56fea265627a7a72315820271e7e344d14271ade43957d31edeb5c3aad679e127f72a4a1b88d4488cbcbc664736f6c63430005100032",
  "source": "pragma solidity >=0.4.22 <0.9.0;\r\n\r\n\r\n\r\n\r\ncontract exemple {\r\n\r\n\r\n\r\n\r\n  constructor( ) public {\r\n  \r\n  }\r\n\r\n\r\n  function justeForTest(string memory a , uint b ) public returns  (string memory)  {\r\n    return \"Hello world\" ;\r\n  }\r\n\r\n  function createPorfolio () public \r\n  {}\r\n\r\n  \r\n}",
  "sourcePath": "C:/jawaher/nova3/contracts/exemple.sol",
  "compiler": {
    "name": "solc",
    "version": "0.5.16+commit.9c3226ce.Emscripten.clang"
  },
  "schemaVersion": "3.3.4",
  "updatedAt": "2021-06-17T10:45:41.606Z",
  "networkType": "ethereum",
  "devdoc": {
    "methods": {}
  },
  "userdoc": {
    "methods": {}
  }
}