{
  "contractName": "PortfolioManagement",
  "abi": [
    {
      "inputs": [],
      "payable": false,
      "stateMutability": "nonpayable",
      "type": "constructor"
    },
    {
      "anonymous": false,
      "inputs": [
        {
          "indexed": false,
          "internalType": "uint256",
          "name": "portfolioId",
          "type": "uint256"
        }
      ],
      "name": "portfolioAdded",
      "type": "event"
    },
    {
      "constant": false,
      "inputs": [
        {
          "internalType": "string",
          "name": "_name",
          "type": "string"
        },
        {
          "internalType": "string",
          "name": "_description",
          "type": "string"
        },
        {
          "internalType": "string",
          "name": "_creatorName",
          "type": "string"
        },
        {
          "internalType": "string",
          "name": "twitterLink",
          "type": "string"
        },
        {
          "internalType": "string",
          "name": "redditLink",
          "type": "string"
        },
        {
          "internalType": "string",
          "name": "tradingviewLink",
          "type": "string"
        }
      ],
      "name": "createPortfolio",
      "outputs": [
        {
          "internalType": "uint256",
          "name": "",
          "type": "uint256"
        }
      ],
      "payable": false,
      "stateMutability": "nonpayable",
      "type": "function"
    },
    {
      "constant": false,
      "inputs": [
        {
          "internalType": "uint256",
          "name": "_portfolioId",
          "type": "uint256"
        },
        {
          "internalType": "string",
          "name": "_creatorName",
          "type": "string"
        },
        {
          "internalType": "string",
          "name": "_twitterLink",
          "type": "string"
        },
        {
          "internalType": "string",
          "name": "_redditLink",
          "type": "string"
        },
        {
          "internalType": "string",
          "name": "_tradingviewLink",
          "type": "string"
        }
      ],
      "name": "assignCreatorToPortfolio",
      "outputs": [],
      "payable": false,
      "stateMutability": "nonpayable",
      "type": "function"
    },
    {
      "constant": true,
      "inputs": [],
      "name": "getPortfoliosLength",
      "outputs": [
        {
          "internalType": "uint256",
          "name": "",
          "type": "uint256"
        }
      ],
      "payable": false,
      "stateMutability": "view",
      "type": "function"
    },
    {
      "constant": true,
      "inputs": [
        {
          "internalType": "uint256",
          "name": "index",
          "type": "uint256"
        }
      ],
      "name": "getPortfolioDetails",
      "outputs": [
        {
          "components": [
            {
              "internalType": "uint256",
              "name": "portfolioId",
              "type": "uint256"
            },
            {
              "internalType": "string",
              "name": "name",
              "type": "string"
            },
            {
              "internalType": "string",
              "name": "description",
              "type": "string"
            },
            {
              "internalType": "string",
              "name": "creatorName",
              "type": "string"
            },
            {
              "internalType": "string",
              "name": "twitterLink",
              "type": "string"
            },
            {
              "internalType": "string",
              "name": "redditLink",
              "type": "string"
            },
            {
              "internalType": "string",
              "name": "tradingviewLink",
              "type": "string"
            }
          ],
          "internalType": "struct PortfolioManagement.Portfolio",
          "name": "_portfolios",
          "type": "tuple"
        }
      ],
      "payable": false,
      "stateMutability": "view",
      "type": "function"
    },
    {
      "constant": true,
      "inputs": [],
      "name": "getAllPortfolios",
      "outputs": [
        {
          "components": [
            {
              "internalType": "uint256",
              "name": "portfolioId",
              "type": "uint256"
            },
            {
              "internalType": "string",
              "name": "name",
              "type": "string"
            },
            {
              "internalType": "string",
              "name": "description",
              "type": "string"
            },
            {
              "internalType": "string",
              "name": "creatorName",
              "type": "string"
            },
            {
              "internalType": "string",
              "name": "twitterLink",
              "type": "string"
            },
            {
              "internalType": "string",
              "name": "redditLink",
              "type": "string"
            },
            {
              "internalType": "string",
              "name": "tradingviewLink",
              "type": "string"
            }
          ],
          "internalType": "struct PortfolioManagement.Portfolio[]",
          "name": "_portfolios",
          "type": "tuple[]"
        }
      ],
      "payable": false,
      "stateMutability": "view",
      "type": "function"
    }
  ],
  "bytecode": "0x608060405234801561001057600080fd5b50611104806100206000396000f3fe608060405234801561001057600080fd5b50600436106100575760003560e01c806311c5f4b41461005c5780635ae300c9146100855780639423bee61461008d578063cd4c7930146100a2578063e01ebf38146100c2575b600080fd5b61006f61006a366004610c42565b6100d7565b60405161007c9190610ff4565b60405180910390f35b61006f610270565b6100a061009b366004610d7e565b61027b565b005b6100b56100b0366004610d58565b61034e565b60405161007c9190610fe3565b6100ca61071b565b60405161007c9190610fd2565b60006100e1610b08565b506040805160e0810182526000805480835260208084018c81529484018b9052606084018a90526080840189905260a0840188905260c0840187905260018201808455928052835160079092027f290decd9548b62a8d60345a988386fc84ba6bc95484008f6362f93160ef3e56381019283559451805194959394869461018e937f290decd9548b62a8d60345a988386fc84ba6bc95484008f6362f93160ef3e564909101920190610b45565b50604082015180516101aa916002840191602090910190610b45565b50606082015180516101c6916003840191602090910190610b45565b50608082015180516101e2916004840191602090910190610b45565b5060a082015180516101fe916005840191602090910190610b45565b5060c0820151805161021a916006840191602090910190610b45565b505050507f19e0367a4e48570d9eb61b559d73e026566e3f338a51358e0c5c56d447e3e2e16001600080549050036040516102559190610ff4565b60405180910390a15050600054600019019695505050505050565b600054600019015b90565b836000868154811061028957fe5b906000526020600020906007020160030190805190602001906102ad929190610b45565b5082600086815481106102bc57fe5b906000526020600020906007020160040190805190602001906102e0929190610b45565b5081600086815481106102ef57fe5b90600052602060002090600702016005019080519060200190610313929190610b45565b50806000868154811061032257fe5b90600052602060002090600702016006019080519060200190610346929190610b45565b505050505050565b610356610b08565b61035e610b08565b6000838154811061036b57fe5b90600052602060002090600702016040518060e001604052908160008201548152602001600182018054600181600116156101000203166002900480601f0160208091040260200160405190810160405280929190818152602001828054600181600116156101000203166002900480156104275780601f106103fc57610100808354040283529160200191610427565b820191906000526020600020905b81548152906001019060200180831161040a57829003601f168201915b5050509183525050600282810180546040805160206001841615610100026000190190931694909404601f810183900483028501830190915280845293810193908301828280156104b95780601f1061048e576101008083540402835291602001916104b9565b820191906000526020600020905b81548152906001019060200180831161049c57829003601f168201915b505050918352505060038201805460408051602060026001851615610100026000190190941693909304601f810184900484028201840190925281815293820193929183018282801561054d5780601f106105225761010080835404028352916020019161054d565b820191906000526020600020905b81548152906001019060200180831161053057829003601f168201915b505050918352505060048201805460408051602060026001851615610100026000190190941693909304601f81018490048402820184019092528181529382019392918301828280156105e15780601f106105b6576101008083540402835291602001916105e1565b820191906000526020600020905b8154815290600101906020018083116105c457829003601f168201915b505050918352505060058201805460408051602060026001851615610100026000190190941693909304601f81018490048402820184019092528181529382019392918301828280156106755780601f1061064a57610100808354040283529160200191610675565b820191906000526020600020905b81548152906001019060200180831161065857829003601f168201915b505050918352505060068201805460408051602060026001851615610100026000190190941693909304601f81018490048402820184019092528181529382019392918301828280156107095780601f106106de57610100808354040283529160200191610709565b820191906000526020600020905b8154815290600101906020018083116106ec57829003601f168201915b50505091909252509195945050505050565b60606000805480602002602001604051908101604052809291908181526020016000905b82821015610aff57838290600052602060002090600702016040518060e001604052908160008201548152602001600182018054600181600116156101000203166002900480601f0160208091040260200160405190810160405280929190818152602001828054600181600116156101000203166002900480156108055780601f106107da57610100808354040283529160200191610805565b820191906000526020600020905b8154815290600101906020018083116107e857829003601f168201915b5050509183525050600282810180546040805160206001841615610100026000190190931694909404601f810183900483028501830190915280845293810193908301828280156108975780601f1061086c57610100808354040283529160200191610897565b820191906000526020600020905b81548152906001019060200180831161087a57829003601f168201915b505050918352505060038201805460408051602060026001851615610100026000190190941693909304601f810184900484028201840190925281815293820193929183018282801561092b5780601f106109005761010080835404028352916020019161092b565b820191906000526020600020905b81548152906001019060200180831161090e57829003601f168201915b505050918352505060048201805460408051602060026001851615610100026000190190941693909304601f81018490048402820184019092528181529382019392918301828280156109bf5780601f10610994576101008083540402835291602001916109bf565b820191906000526020600020905b8154815290600101906020018083116109a257829003601f168201915b505050918352505060058201805460408051602060026001851615610100026000190190941693909304601f8101849004840282018401909252818152938201939291830182828015610a535780601f10610a2857610100808354040283529160200191610a53565b820191906000526020600020905b815481529060010190602001808311610a3657829003601f168201915b505050918352505060068201805460408051602060026001851615610100026000190190941693909304601f8101849004840282018401909252818152938201939291830182828015610ae75780601f10610abc57610100808354040283529160200191610ae7565b820191906000526020600020905b815481529060010190602001808311610aca57829003601f168201915b5050505050815250508152602001906001019061073f565b50505050905090565b6040518060e00160405280600081526020016060815260200160608152602001606081526020016060815260200160608152602001606081525090565b828054600181600116156101000203166002900490600052602060002090601f016020900481019282601f10610b8657805160ff1916838001178555610bb3565b82800160010185558215610bb3579182015b82811115610bb3578251825591602001919060010190610b98565b50610bbf929150610bc3565b5090565b61027891905b80821115610bbf5760008155600101610bc9565b600082601f830112610bee57600080fd5b8135610c01610bfc82611029565b611002565b91508082526020830160208301858383011115610c1d57600080fd5b610c28838284611064565b50505092915050565b8035610c3c816110aa565b92915050565b60008060008060008060c08789031215610c5b57600080fd5b863567ffffffffffffffff811115610c7257600080fd5b610c7e89828a01610bdd565b965050602087013567ffffffffffffffff811115610c9b57600080fd5b610ca789828a01610bdd565b955050604087013567ffffffffffffffff811115610cc457600080fd5b610cd089828a01610bdd565b945050606087013567ffffffffffffffff811115610ced57600080fd5b610cf989828a01610bdd565b935050608087013567ffffffffffffffff811115610d1657600080fd5b610d2289828a01610bdd565b92505060a087013567ffffffffffffffff811115610d3f57600080fd5b610d4b89828a01610bdd565b9150509295509295509295565b600060208284031215610d6a57600080fd5b6000610d768484610c31565b949350505050565b600080600080600060a08688031215610d9657600080fd5b6000610da28888610c31565b955050602086013567ffffffffffffffff811115610dbf57600080fd5b610dcb88828901610bdd565b945050604086013567ffffffffffffffff811115610de857600080fd5b610df488828901610bdd565b935050606086013567ffffffffffffffff811115610e1157600080fd5b610e1d88828901610bdd565b925050608086013567ffffffffffffffff811115610e3a57600080fd5b610e4688828901610bdd565b9150509295509295909350565b6000610e5f8383610f0c565b9392505050565b6000610e7182611057565b610e7b818561105b565b935083602082028501610e8d85611051565b8060005b85811015610ec75784840389528151610eaa8582610e53565b9450610eb583611051565b60209a909a0199925050600101610e91565b5091979650505050505050565b6000610edf82611057565b610ee9818561105b565b9350610ef9818560208601611070565b610f02816110a0565b9093019392505050565b805160009060e0840190610f208582610fc3565b5060208301518482036020860152610f388282610ed4565b91505060408301518482036040860152610f528282610ed4565b91505060608301518482036060860152610f6c8282610ed4565b91505060808301518482036080860152610f868282610ed4565b91505060a083015184820360a0860152610fa08282610ed4565b91505060c083015184820360c0860152610fba8282610ed4565b95945050505050565b610fcc81610278565b82525050565b60208082528101610e5f8184610e66565b60208082528101610e5f8184610f0c565b60208101610c3c8284610fc3565b60405181810167ffffffffffffffff8111828210171561102157600080fd5b604052919050565b600067ffffffffffffffff82111561104057600080fd5b506020601f91909101601f19160190565b60200190565b5190565b90815260200190565b82818337506000910152565b60005b8381101561108b578181015183820152602001611073565b8381111561109a576000848401525b50505050565b601f01601f191690565b6110b381610278565b81146110be57600080fd5b5056fea365627a7a72315820bf1cc31d8e405c27f92fd359f757a2ebcb49971c5a21084ea3ad462b6191948e6c6578706572696d656e74616cf564736f6c63430005100040",
  "source": "pragma solidity >=0.4.22 <0.9.0;\r\npragma experimental ABIEncoderV2;\r\n\r\n\r\n\r\ncontract PortfolioManagement {\r\n\r\n struct Portfolio {\r\n    uint portfolioId;\r\n    string name ;\r\n    string description;\r\n    string creatorName ;\r\n    string twitterLink ;\r\n    string redditLink ;\r\n    string tradingviewLink ;\r\n }\r\n\r\n Portfolio [] portfolios ;\r\n\r\n\r\nevent portfolioAdded(uint portfolioId);\r\n\r\n\r\n  constructor() public {\r\n  \r\n  }\r\n\r\nfunction createPortfolio (string memory _name , string memory _description, string memory _creatorName  , string memory  twitterLink , string memory redditLink , string memory tradingviewLink) public returns (uint) {\r\n    // portfolios[portfolios.length].name = _name;\r\n    // portfolios[portfolios.length].description = _description;\r\n    // portfolios[portfolios.length].portfolioId = portfolios.length;\r\n    Portfolio memory portfolio = Portfolio(portfolios.length, _name , _description , _creatorName, twitterLink , redditLink ,tradingviewLink); \r\n    portfolios.push(portfolio);\r\n    emit portfolioAdded (portfolios.length-1);\r\n    return (portfolios.length-1) ;\r\n\r\n}\r\n\r\nfunction assignCreatorToPortfolio (uint _portfolioId , string memory _creatorName , string memory _twitterLink , string memory _redditLink , string memory _tradingviewLink ) public \r\n  {\r\n      portfolios[_portfolioId].creatorName = _creatorName;\r\n      portfolios[_portfolioId].twitterLink = _twitterLink;\r\n      portfolios[_portfolioId].redditLink = _redditLink;\r\n      portfolios[_portfolioId].tradingviewLink = _tradingviewLink;\r\n  }\r\n \r\n function getPortfoliosLength() public view returns (uint) {\r\n    return portfolios.length-1;\r\n  }\r\n\r\n  // function getPortfolioDetails(uint index) public view returns (uint , string memory ,  string memory  ,  string memory ,  string memory,  string memory, string memory){\r\n\r\n  //   return (portfolios[index].portfolioId, portfolios[index].name, portfolios[index].description,\r\n  //    portfolios[index].creatorName ,  portfolios[index].twitterLink,  portfolios[index].redditLink, portfolios[index].tradingviewLink);\r\n\r\n  // }\r\n\r\n\r\n   function getPortfolioDetails(uint index) public view returns (Portfolio memory _portfolios){\r\n\r\n      Portfolio memory portfolio = portfolios[index];\r\n      return portfolio;\r\n   }\r\n\r\n  function getAllPortfolios () public view returns (Portfolio [] memory _portfolios)\r\n    {\r\n      return portfolios;\r\n    }\r\n\r\n\r\n  \r\n}",
  "sourcePath": "C:/jawaher/nova3/contracts/Portfolio.sol",
  "compiler": {
    "name": "solc",
    "version": "0.5.16+commit.9c3226ce.Emscripten.clang"
  },
  "schemaVersion": "3.3.4",
  "updatedAt": "2021-07-02T12:30:39.581Z",
  "networkType": "ethereum",
  "devdoc": {
    "methods": {}
  },
  "userdoc": {
    "methods": {}
  }
}