{
  "contractName": "ValidatedTokenEuro",
  "abi": [
    {
      "inputs": [
        {
          "internalType": "address",
          "name": "v",
          "type": "address"
        },
        {
          "internalType": "address",
          "name": "c",
          "type": "address"
        }
      ],
      "stateMutability": "nonpayable",
      "type": "constructor"
    },
    {
      "anonymous": false,
      "inputs": [
        {
          "indexed": true,
          "internalType": "address",
          "name": "owner",
          "type": "address"
        },
        {
          "indexed": true,
          "internalType": "address",
          "name": "spender",
          "type": "address"
        },
        {
          "indexed": false,
          "internalType": "uint256",
          "name": "value",
          "type": "uint256"
        }
      ],
      "name": "Approval",
      "type": "event"
    },
    {
      "anonymous": false,
      "inputs": [
        {
          "indexed": true,
          "internalType": "address",
          "name": "from",
          "type": "address"
        },
        {
          "indexed": true,
          "internalType": "address",
          "name": "to",
          "type": "address"
        },
        {
          "indexed": false,
          "internalType": "uint256",
          "name": "value",
          "type": "uint256"
        }
      ],
      "name": "Transfer",
      "type": "event"
    },
    {
      "inputs": [
        {
          "internalType": "address",
          "name": "owner",
          "type": "address"
        },
        {
          "internalType": "address",
          "name": "spender",
          "type": "address"
        }
      ],
      "name": "allowance",
      "outputs": [
        {
          "internalType": "uint256",
          "name": "",
          "type": "uint256"
        }
      ],
      "stateMutability": "view",
      "type": "function"
    },
    {
      "inputs": [
        {
          "internalType": "address",
          "name": "spender",
          "type": "address"
        },
        {
          "internalType": "uint256",
          "name": "amount",
          "type": "uint256"
        }
      ],
      "name": "approve",
      "outputs": [
        {
          "internalType": "bool",
          "name": "",
          "type": "bool"
        }
      ],
      "stateMutability": "nonpayable",
      "type": "function"
    },
    {
      "inputs": [
        {
          "internalType": "address",
          "name": "account",
          "type": "address"
        }
      ],
      "name": "balanceOf",
      "outputs": [
        {
          "internalType": "uint256",
          "name": "",
          "type": "uint256"
        }
      ],
      "stateMutability": "view",
      "type": "function"
    },
    {
      "inputs": [],
      "name": "decimals",
      "outputs": [
        {
          "internalType": "uint8",
          "name": "",
          "type": "uint8"
        }
      ],
      "stateMutability": "view",
      "type": "function"
    },
    {
      "inputs": [
        {
          "internalType": "address",
          "name": "spender",
          "type": "address"
        },
        {
          "internalType": "uint256",
          "name": "subtractedValue",
          "type": "uint256"
        }
      ],
      "name": "decreaseAllowance",
      "outputs": [
        {
          "internalType": "bool",
          "name": "",
          "type": "bool"
        }
      ],
      "stateMutability": "nonpayable",
      "type": "function"
    },
    {
      "inputs": [
        {
          "internalType": "address",
          "name": "spender",
          "type": "address"
        },
        {
          "internalType": "uint256",
          "name": "addedValue",
          "type": "uint256"
        }
      ],
      "name": "increaseAllowance",
      "outputs": [
        {
          "internalType": "bool",
          "name": "",
          "type": "bool"
        }
      ],
      "stateMutability": "nonpayable",
      "type": "function"
    },
    {
      "inputs": [],
      "name": "name",
      "outputs": [
        {
          "internalType": "string",
          "name": "",
          "type": "string"
        }
      ],
      "stateMutability": "view",
      "type": "function"
    },
    {
      "inputs": [],
      "name": "symbol",
      "outputs": [
        {
          "internalType": "string",
          "name": "",
          "type": "string"
        }
      ],
      "stateMutability": "view",
      "type": "function"
    },
    {
      "inputs": [],
      "name": "totalSupply",
      "outputs": [
        {
          "internalType": "uint256",
          "name": "",
          "type": "uint256"
        }
      ],
      "stateMutability": "view",
      "type": "function"
    },
    {
      "inputs": [
        {
          "internalType": "address",
          "name": "recipient",
          "type": "address"
        },
        {
          "internalType": "uint256",
          "name": "amount",
          "type": "uint256"
        }
      ],
      "name": "transfer",
      "outputs": [
        {
          "internalType": "bool",
          "name": "",
          "type": "bool"
        }
      ],
      "stateMutability": "nonpayable",
      "type": "function"
    },
    {
      "inputs": [
        {
          "internalType": "address",
          "name": "sender",
          "type": "address"
        },
        {
          "internalType": "address",
          "name": "recipient",
          "type": "address"
        },
        {
          "internalType": "uint256",
          "name": "amount",
          "type": "uint256"
        }
      ],
      "name": "transferFrom",
      "outputs": [
        {
          "internalType": "bool",
          "name": "",
          "type": "bool"
        }
      ],
      "stateMutability": "nonpayable",
      "type": "function"
    },
    {
      "inputs": [
        {
          "internalType": "address",
          "name": "a",
          "type": "address"
        }
      ],
      "name": "validate",
      "outputs": [],
      "stateMutability": "nonpayable",
      "type": "function"
    },
    {
      "inputs": [
        {
          "internalType": "address",
          "name": "a",
          "type": "address"
        }
      ],
      "name": "reject",
      "outputs": [],
      "stateMutability": "nonpayable",
      "type": "function"
    }
  ],
  "bytecode": "0x608060405234801561001057600080fd5b50604051610eb4380380610eb48339818101604052604081101561003357600080fd5b508051602091820151604080518082018252601281527156616c696461746564546f6b656e4575726f60701b81860190815282518084019093526005835264764555524f60d81b95830195909552805193949293909261009691600391906100f1565b5080516100aa9060049060208401906100f1565b505060058054601260ff1990911617610100600160a81b0319166101006001600160a01b039586160217905550600680546001600160a01b0319169190921617905561018c565b828054600181600116156101000203166002900490600052602060002090601f016020900481019282601f1061013257805160ff191683800117855561015f565b8280016001018555821561015f579182015b8281111561015f578251825591602001919060010190610144565b5061016b92915061016f565b5090565b61018991905b8082111561016b5760008155600101610175565b90565b610d198061019b6000396000f3fe608060405234801561001057600080fd5b50600436106100cf5760003560e01c8063395093511161008c578063a457c2d711610066578063a457c2d714610281578063a9059cbb146102ad578063ab0da5a9146102d9578063dd62ed3e146102ff576100cf565b8063395093511461022757806370a082311461025357806395d89b4114610279576100cf565b806306fdde03146100d4578063095ea7b31461015157806318160ddd14610191578063207c64fb146101ab57806323b872dd146101d3578063313ce56714610209575b600080fd5b6100dc61032d565b6040805160208082528351818301528351919283929083019185019080838360005b838110156101165781810151838201526020016100fe565b50505050905090810190601f1680156101435780820380516001836020036101000a031916815260200191505b509250505060405180910390f35b61017d6004803603604081101561016757600080fd5b506001600160a01b0381351690602001356103c3565b604080519115158252519081900360200190f35b6101996103e0565b60408051918252519081900360200190f35b6101d1600480360360208110156101c157600080fd5b50356001600160a01b03166103e6565b005b61017d600480360360608110156101e957600080fd5b506001600160a01b038135811691602081013590911690604001356104a7565b610211610534565b6040805160ff9092168252519081900360200190f35b61017d6004803603604081101561023d57600080fd5b506001600160a01b03813516906020013561053d565b6101996004803603602081101561026957600080fd5b50356001600160a01b0316610591565b6100dc6105ac565b61017d6004803603604081101561029757600080fd5b506001600160a01b03813516906020013561060d565b61017d600480360360408110156102c357600080fd5b506001600160a01b03813516906020013561067b565b6101d1600480360360208110156102ef57600080fd5b50356001600160a01b031661068f565b6101996004803603604081101561031557600080fd5b506001600160a01b03813581169160200135166106bb565b60038054604080516020601f60026000196101006001881615020190951694909404938401819004810282018101909252828152606093909290918301828280156103b95780601f1061038e576101008083540402835291602001916103b9565b820191906000526020600020905b81548152906001019060200180831161039c57829003601f168201915b5050505050905090565b60006103d76103d06106e6565b84846106ea565b50600192915050565b60025490565b60055461010090046001600160a01b0316331461040257600080fd5b600061040d82610591565b90506104218261041c84610591565b6107d6565b6006546040805163a9059cbb60e01b81526001600160a01b038581166004830152602482018590529151919092169163a9059cbb9160448083019260209291908290030181600087803b15801561047757600080fd5b505af115801561048b573d6000803e3d6000fd5b505050506040513d60208110156104a157600080fd5b50505050565b60006104b48484846108de565b61052a846104c06106e6565b61052585604051806060016040528060288152602001610c2d602891396001600160a01b038a166000908152600160205260408120906104fe6106e6565b6001600160a01b03168152602081019190915260400160002054919063ffffffff610a4516565b6106ea565b5060019392505050565b60055460ff1690565b60006103d761054a6106e6565b84610525856001600061055b6106e6565b6001600160a01b03908116825260208083019390935260409182016000908120918c16815292529020549063ffffffff610adc16565b6001600160a01b031660009081526020819052604090205490565b60048054604080516020601f60026000196101006001881615020190951694909404938401819004810282018101909252828152606093909290918301828280156103b95780601f1061038e576101008083540402835291602001916103b9565b60006103d761061a6106e6565b8461052585604051806060016040528060258152602001610cbf60259139600160006106446106e6565b6001600160a01b03908116825260208083019390935260409182016000908120918d1681529252902054919063ffffffff610a4516565b60006103d76106886106e6565b84846108de565b60055461010090046001600160a01b031633146106ab57600080fd5b6106b88161041c83610591565b50565b6001600160a01b03918216600090815260016020908152604080832093909416825291909152205490565b3390565b6001600160a01b03831661072f5760405162461bcd60e51b8152600401808060200182810382526024815260200180610c9b6024913960400191505060405180910390fd5b6001600160a01b0382166107745760405162461bcd60e51b8152600401808060200182810382526022815260200180610be56022913960400191505060405180910390fd5b6001600160a01b03808416600081815260016020908152604080832094871680845294825291829020859055815185815291517f8c5be1e5ebec7d5bd14f71427d1e84f3dd0314c0f7b2291e5b200ac8c7c3b9259281900390910190a3505050565b6001600160a01b03821661081b5760405162461bcd60e51b8152600401808060200182810382526021815260200180610c556021913960400191505060405180910390fd5b61082782600083610b3d565b61086a81604051806060016040528060228152602001610bc3602291396001600160a01b038516600090815260208190526040902054919063ffffffff610a4516565b6001600160a01b038316600090815260208190526040902055600254610896908263ffffffff610b4216565b6002556040805182815290516000916001600160a01b038516917fddf252ad1be2c89b69c2b068fc378daa952ba7f163c4a11628f55a4df523b3ef9181900360200190a35050565b6001600160a01b0383166109235760405162461bcd60e51b8152600401808060200182810382526025815260200180610c766025913960400191505060405180910390fd5b6001600160a01b0382166109685760405162461bcd60e51b8152600401808060200182810382526023815260200180610ba06023913960400191505060405180910390fd5b610973838383610b3d565b6109b681604051806060016040528060268152602001610c07602691396001600160a01b038616600090815260208190526040902054919063ffffffff610a4516565b6001600160a01b0380851660009081526020819052604080822093909355908416815220546109eb908263ffffffff610adc16565b6001600160a01b038084166000818152602081815260409182902094909455805185815290519193928716927fddf252ad1be2c89b69c2b068fc378daa952ba7f163c4a11628f55a4df523b3ef92918290030190a3505050565b60008184841115610ad45760405162461bcd60e51b81526004018080602001828103825283818151815260200191508051906020019080838360005b83811015610a99578181015183820152602001610a81565b50505050905090810190601f168015610ac65780820380516001836020036101000a031916815260200191505b509250505060405180910390fd5b505050900390565b600082820183811015610b36576040805162461bcd60e51b815260206004820152601b60248201527f536166654d6174683a206164646974696f6e206f766572666c6f770000000000604482015290519081900360640190fd5b9392505050565b505050565b600082821115610b99576040805162461bcd60e51b815260206004820152601e60248201527f536166654d6174683a207375627472616374696f6e206f766572666c6f770000604482015290519081900360640190fd5b5090039056fe45524332303a207472616e7366657220746f20746865207a65726f206164647265737345524332303a206275726e20616d6f756e7420657863656564732062616c616e636545524332303a20617070726f766520746f20746865207a65726f206164647265737345524332303a207472616e7366657220616d6f756e7420657863656564732062616c616e636545524332303a207472616e7366657220616d6f756e74206578636565647320616c6c6f77616e636545524332303a206275726e2066726f6d20746865207a65726f206164647265737345524332303a207472616e736665722066726f6d20746865207a65726f206164647265737345524332303a20617070726f76652066726f6d20746865207a65726f206164647265737345524332303a2064656372656173656420616c6c6f77616e63652062656c6f77207a65726fa26469706673582212203d84d9716708a0f0565afdb902583784d4718c2712524ca002d974173534711f64736f6c63430006080033",
  "source": "// SPDX-License-Identifier: MIT\r\npragma solidity >=0.4.22 <0.9.0;\r\n\r\n\r\nimport '@openzeppelin/contracts/token/ERC20/ERC20.sol' ;\r\n\r\ncontract ValidatedTokenEuro is ERC20 {\r\n  \r\n  address validator;\r\n  address coin;\r\n   constructor(address v , address c)  ERC20(\"ValidatedTokenEuro\",\"vEURO\") public{\r\n    validator = v;\r\n    coin = c;\r\n  }\r\n\r\n  function validate(address a) public  {\r\n    require(msg.sender == validator);\r\n    uint b = balanceOf(a);\r\n    _burn(a , balanceOf(a));\r\n    (IERC20)(coin).transfer(a , b);\r\n  }  \r\n\r\n  function reject(address a) public  {\r\n    require(msg.sender == validator);\r\n   // uint b = balanceOf(a);\r\n    _burn(a , balanceOf(a));\r\n  } \r\n}",
  "sourcePath": "D:\\Jawaher\\Banque Centrale\\BCPartTwo\\contracts\\ValidatedTokenEuro.sol",
  "compiler": {
    "name": "solc",
    "version": "0.6.8+commit.0bbfe453.Emscripten.clang"
  },
  "schemaVersion": "3.0.23",
  "updatedAt": "2021-04-29T22:58:55.820Z",
  "devdoc": {
    "methods": {
      "allowance(address,address)": {
        "details": "See {IERC20-allowance}."
      },
      "approve(address,uint256)": {
        "details": "See {IERC20-approve}.     * Requirements:     * - `spender` cannot be the zero address."
      },
      "balanceOf(address)": {
        "details": "See {IERC20-balanceOf}."
      },
      "decimals()": {
        "details": "Returns the number of decimals used to get its user representation. For example, if `decimals` equals `2`, a balance of `505` tokens should be displayed to a user as `5,05` (`505 / 10 ** 2`).     * Tokens usually opt for a value of 18, imitating the relationship between Ether and Wei. This is the value {ERC20} uses, unless {_setupDecimals} is called.     * NOTE: This information is only used for _display_ purposes: it in no way affects any of the arithmetic of the contract, including {IERC20-balanceOf} and {IERC20-transfer}."
      },
      "decreaseAllowance(address,uint256)": {
        "details": "Atomically decreases the allowance granted to `spender` by the caller.     * This is an alternative to {approve} that can be used as a mitigation for problems described in {IERC20-approve}.     * Emits an {Approval} event indicating the updated allowance.     * Requirements:     * - `spender` cannot be the zero address. - `spender` must have allowance for the caller of at least `subtractedValue`."
      },
      "increaseAllowance(address,uint256)": {
        "details": "Atomically increases the allowance granted to `spender` by the caller.     * This is an alternative to {approve} that can be used as a mitigation for problems described in {IERC20-approve}.     * Emits an {Approval} event indicating the updated allowance.     * Requirements:     * - `spender` cannot be the zero address."
      },
      "name()": {
        "details": "Returns the name of the token."
      },
      "symbol()": {
        "details": "Returns the symbol of the token, usually a shorter version of the name."
      },
      "totalSupply()": {
        "details": "See {IERC20-totalSupply}."
      },
      "transfer(address,uint256)": {
        "details": "See {IERC20-transfer}.     * Requirements:     * - `recipient` cannot be the zero address. - the caller must have a balance of at least `amount`."
      },
      "transferFrom(address,address,uint256)": {
        "details": "See {IERC20-transferFrom}.     * Emits an {Approval} event indicating the updated allowance. This is not required by the EIP. See the note at the beginning of {ERC20}.     * Requirements:     * - `sender` and `recipient` cannot be the zero address. - `sender` must have a balance of at least `amount`. - the caller must have allowance for ``sender``'s tokens of at least `amount`."
      }
    }
  },
  "userdoc": {
    "methods": {}
  }
}